:1000000050C200006FC200006DC200006BC2000051
:1000100069C2000067C2000065C2000063C2000040
:1000200061C200005FC200005DC200005BC2000050
:1000300059C200000C94C80B0C94291253C2000042
:1000400051C200004FC200004DC200004BC2000070
:1000500049C2000047C2000045C2000043C2000080
:1000600041C200003FC200003DC200003BC2000090
:1000700039C2000037C2000035C2000033C20000A0
:1000800031C200002FC200002DC200002BC20000B0
:1000900029C2000027C2000025C200000C942A09D2
:1000A0000C945C090C948E090C94C0091BC20000CE
:1000B00019C2000017C200000C94EF0B13C200001D
:1000C00011C200000FC200000DC200000BC20000F0
:1000D00009C2000007C2000005C2000003C2000000
:1000E00001C20000FFC10000FDC10000FBC1000013
:1000F000F9C10000F7C10000F5C10000F3C1000024
:10010000F1C10000EFC10000EDC10000EBC1000033
:10011000E9C10000E7C10000E5C10000D3C700004D
:100120000C9494080C94C6080C94F808DBC10000E9
:10013000D9C10000D7C10000D5C10000D3C1000063
:10014000D1C10000CFC10000CDC10000CBC1000073
:10015000C9C10000C7C10000C5C10000C3C1000083
:10016000C1C10000BFC10000BDC10000BBC1000093
:10017000B9C10000B7C10000B5C10000B3C10000A3
:10018000B1C10000AFC10000ADC10000ABC10000B3
:10019000A9C10000A7C10000A5C10000A3C10000C3
:1001A000A1C100009FC100009DC100009BC10000D3
:1001B00099C1000097C1000095C1000093C10000E3
:1001C00091C100008FC100008DC100008BC10000F3
:1001D00089C1000087C1000085C1000083C1000003
:1001E00081C100007FC100007DC100007BC1000013
:1001F00079C1000077C1000075C10000BC1ABC1AAB
:10020000BC1AE91AF11AFF1ABC1ABC1AE91AF11A37
:10021000000000000000002020202020002050507E
:1002200050000000005050F850F850502078A07056
:1002300028F020C0C810204098186090A040A890D6
:100240006860204000000000102040404020104026
:10025000201010102040005020F8205000002020D6
:10026000F820200000000000602040000000F8009E
:1002700000000000000000606000081020408000C6
:10028000708898A8C888702060202020207070880E
:1002900008102040F8F81020100888701030509096
:1002A000F81010F880F008088870304080F08888D6
:1002B00070F80810204040407088887088887070FE
:1002C00088887808106000606000606000006060EE
:1002D00000602040081020402010080000F800F8BE
:1002E00000008040201020408070880810200020EE
:1002F00070880868A8A87070888888F88888F0884E
:1003000088F08888F070888080808870E090888885
:100310008890E0F88080F08080F8F88080E080802D
:100320008070888080988870888888F8888888702D
:10033000202020202070381010101090608890A08D
:10034000C0A09088808080808080F888D8A8888825
:1003500088888888C8A898888870888888888870DD
:10036000F08888F080808070888888A89068F088FD
:1003700088F0A09088788080700808F0F82020200D
:100380002020208888888888887088888888885075
:1003900020888888A8A8D88888885020508888888D
:1003A000885020202020F80810204080F838202095
:1003B0002020203800804020100800E0202020204D
:1003C00020E020508800000000000000000000F83D
:1003D00040201000000000000070087888788080BD
:1003E000B0C88888F000007080808870080868981D
:1003F00088887800007088F88070304840E040407D
:1004000040000078887808308080B0C888888820CC
:100410000060202020701000301010906040404894
:1004200050605048602020202020700000D0A8A8F4
:1004300088880000B0C88888880000708888887024
:100440000000F088F08080000068987808080000BC
:10045000B0C8808080000070807008F04040E040AC
:100460004048300000888888986800008888885054
:100470002000008888A8A8500000885020508800DC
:100480000088887808700000F8102040F8102020BC
:10049000402020102020202020202040202010203C
:1004A000204011241FBECFEFCDBFDFE5DEBF00E04F
:1004B0000CBF10E2A0E0B0E2E4E3F5E400E00BBF23
:1004C00002C007900D92AA34B107D9F723E2AAE43B
:1004D000B0E201C01D92A236B207E1F70E94D11B23
:1004E0000C9498228DCD04C0615071098109910945
:1004F0006115710581059105B9F70895BF92CF92F5
:10050000DF92EF92FF920F931F93CF93DF931F928F
:10051000CDB7DEB700E016E06894FF24F3F8F801E9
:10052000F68264E070E080E090E0DDDFF801F582C3
:1005300064E070E080E090E0D6DF0F2EFBE2BF2E9B
:10054000F02DB98280EA99E043D4C12CD12C7601F8
:1005500000E412E42FE030E043E0BE016F5F7F4F24
:1005600080EA99E064D400E616E0FF24F394F801F1
:10057000F682B982BE016F5F7F4F80EA99E071D445
:10058000F801F682E0EAF9E0818185FFFDCF80EA9B
:100590008093A009E0EAF9E0818186FFFDCFE0EADF
:1005A000F9E080E481838081BE016F5F7F4F80EA44
:1005B00099E06DD48BE28983BE016F5F7F4F80EA43
:1005C00099E04FD481E080936606E0EAF9E081810A
:1005D00085FFFDCF86EA8093A009E0EAF9E08181FA
:1005E00086FFFDCFE0EAF9E080E481838081BE01EF
:1005F0006F5F7F4F80EA99E04AD48BE28983BE0126
:100600006F5F7F4F80EA99E02CD481E0809366068B
:10061000E0EAF9E0818185FFFDCF88EC8093A009B5
:10062000E0EAF9E0818186FFFDCFE0EAF9E080E4CD
:1006300081838081BE016F5F7F4F80EA99E027D47C
:100640008BE28983BE016F5F7F4F80EA99E009D416
:1006500081E080936606E0EAF9E0818185FFFDCFC5
:1006600082EA8093A009E0EAF9E0818186FFFDCF6C
:10067000E0EAF9E080E481838081BE016F5F7F4F13
:1006800080EA99E004D48BE28983BE016F5F7F4FDB
:1006900080EA99E0E6D381E080936606E0EAF9E03B
:1006A000818185FFFDCF8FE28093A009E0EAF9E028
:1006B000818186FFFDCFE0EAF9E080E481838081DB
:1006C000BE016F5F7F4F80EA99E0E1D38BE28983BF
:1006D000BE016F5F7F4F80EA99E0C3D381E08093D2
:1006E0006606E0EAF9E0818185FFFDCF88EF80931F
:1006F000A009E0EAF9E0818186FFFDCFE0EAF9E0B8
:1007000080E481838081BE016F5F7F4F80EA99E042
:10071000BED38BE28983BE016F5F7F4F80EA99E091
:10072000A0D381E080936606E0EAF9E0818185FF4D
:10073000FDCF1092A009E0EAF9E0818186FFFDCFAC
:10074000E0EAF9E080E481838081BE016F5F7F4F42
:1007500080EA99E09CD38BE28983BE016F5F7F4F73
:1007600080EA99E07ED381E080936606E0EAF9E0D2
:10077000818185FFFDCF81E28093A009E0EAF9E065
:10078000818186FFFDCFE0EAF9E080E4818380810A
:10079000BE016F5F7F4F80EA99E079D38BE2898356
:1007A000BE016F5F7F4F80EA99E05BD381E0809369
:1007B0006606E0EAF9E0818185FFFDCF81E880935C
:1007C000A009E0EAF9E0818186FFFDCFE0EAF9E0E7
:1007D00080E481838081BE016F5F7F4F80EA99E072
:1007E00056D38BE28983BE016F5F7F4F80EA99E029
:1007F00038D381E080936606E0EAF9E0818185FFE5
:10080000FDCF81E28093A009E0EAF9E0818186FFD3
:10081000FDCFE0EAF9E080E481838081BE016F5F73
:100820007F4F80EA99E033D38BE28983BE016F5F0B
:100830007F4F80EA99E015D381E080936606E0EA75
:10084000F9E0818185FFFDCF8FEA8093A009E0EA7E
:10085000F9E0818186FFFDCFE0EAF9E080E4818361
:100860008081BE016F5F7F4F80EA99E010D30F90C7
:10087000DF91CF911F910F91FF90EF90DF90CF907C
:10088000BF9008958FEF80937000809371008093E4
:10089000720080937300809374008093750080933E
:1008A00076000895CF93DF931F92CDB7DEB79FB741
:1008B0009983F8949981E82FF0E0E059FF4F609513
:1008C0008081682360839FBF0F90DF91CF9108954F
:1008D000CF93DF931F92CDB7DEB79FB79983F8947C
:1008E0009981E82FF0E0E059FF4F8081682B608309
:1008F0009FBF0F90DF91CF910895FF920F931F93A9
:10090000CF93DF931F92CDB7DEB7082FF62E142FAB
:100910001AD10F70006B8BE28983BE016F5F7F4F2E
:1009200080EA99E09ED281E080936606E0EAF9E0F1
:10093000918195FFFDCF0093A009E0EAF9E0818164
:1009400086FFFDCFE0EAF9E080E481838081BE018B
:100950006F5F7F4F80EA99E09AD20F2D0F77029553
:100960000F7000618BE28983BE016F5F7F4F80EA69
:1009700099E077D281E080936606E0EAF9E0818130
:1009800085FFFDCF0093A009E0EAF9E0818186FFB1
:10099000FDCFE0EAF9E080E481838081BE016F5FF2
:1009A0007F4F80EA99E073D20F2D0F708BE289831D
:1009B000BE016F5F7F4F80EA99E053D281E0809360
:1009C0006606E0EAF9E0818185FFFDCF0093A0098A
:1009D000E0EAF9E0818186FFFDCFE0EAF9E080E41A
:1009E00081838081BE016F5F7F4F80EA99E04FD2A3
:1009F0008BE28983BE016F5F7F4F80EA99E031D23D
:100A000081E080936506E0EAF9E0818185FFFDCF12
:100A10001093A009E0EAF9E0818186FFFDCFE0EACA
:100A2000F9E080E48183808181E080936606BE01E5
:100A30006F5F7F4F80EA99E02AD20F90DF91CF91CC
:100A40001F910F91FF9008950F931F93CF93DF9302
:100A50001F92CDB7DEB78AE490E270D04FDD8BE213
:100A60008983BE016F5F7F4F80EA99E0FAD181E010
:100A700080936606E0EAF9E0818185FFFDCF80E49E
:100A80008093A009E0EAF9E0818186FFFDCFE0EAEA
:100A9000F9E080E481838081BE016F5F7F4F80EA4F
:100AA00099E0F5D100E00AC040E0612F802F25DFFA
:100AB0001F5F1038C9F70F5F043011F010E0F4CF5A
:100AC0000F90DF91CF911F910F910895FF920F9397
:100AD0001F93CF93DF9388234CF1603238F5D42FE6
:100AE000C82FF62EF694F694F69470E088E0F89EFF
:100AF00060197109112481E090E08C0102C0000F9F
:100B0000111F6A95E2F76C2F8F2D2BD0D13021F079
:100B100028F0D23031F006C0802B04C0009580232D
:100B200001C08027482F6C2F8F2DE7DEDF91CF91FA
:100B30001F910F91FF90089514C0089580934A2249
:100B400090934B22089520914A2230914B2290E8B5
:100B5000899F200D311D1124F901E60FF11D4083FD
:100B6000089520914A2230914B2290E8899F200DD0
:100B7000311D1124F901E60FF11D80810895FF92C6
:100B80000F931F93CF93DF93E42FF0E0E80FF11D55
:100B9000E138F1051CF0C0E84C2F481B442309F450
:100BA0004AC0D62FD695D695D69570E098E0D99FB5
:100BB000601971091124E1E0F0E0DF0102C0AA0F21
:100BC000BB1F6A95E2F7FA2E213021F098F022300F
:100BD00019F131C0C42F1FEF180F012F0C0F602F18
:100BE0008D2FAADF4F2D482B602F8D2F86DEC15011
:100BF000A1F721C0C42F1FEF180FFA2EF094012F78
:100C00000C0F602F8D2F98DF4F2D4823602F8D2FD5
:100C100074DEC150A1F70FC0C42F1FEF180F012FB2
:100C20000C0F602F8D2F88DF4F2D4827602F8D2FC1
:100C300064DEC150A1F7DF91CF911F910F91FF901A
:100C40000895FF920F931F93CF93DF93222369F0B0
:100C5000F42E182FC22FDFEFD60F6D2F6C0F202F21
:100C60004F2D812F8CDFC150C1F7DF91CF911F91A4
:100C70000F91FF900895AF92BF92CF92DF92EF92C3
:100C8000FF920F931F93CF93DF93C82FE62EB42EBE
:100C9000690100E0F901248143816B2D8E2DD1DFA4
:100CA000F6018081811139C08381282F26952695F0
:100CB0002695877009F02F5FF601A4808C2F90E0B5
:100CC0003581831B91092A9D90011124829FA001E7
:100CD000839F500D929F500D112401811281040FAA
:100CE000151FF601F380FF20A1F0D0E0C0E08E2DAB
:100CF0008C0F9C2F977021F4F801D4910F5F1F4F38
:100D0000DD231CF441E06B2DE1DEDD0FCF5FFC1233
:100D1000EECFB394AA94A110E4CFDF91CF911F91AD
:100D20000F91FF90EF90DF90CF90BF90AF9008951C
:100D3000DF92EF92FF920F931F93CF93DF93D62E04
:100D4000042F7901EC01162F89918A3031F4F701D3
:100D500084818F5F080F1D2D09C08D3039F09701F8
:100D6000402F612F88DFF7018381180F888181115F
:100D7000EBCFDF91CF911F910F91FF90EF90DF901C
:100D80000895CF93DF93FC0120E030E0C62FD0E040
:100D9000DE01022E02C0B595A7950A94E2F7A0FDE8
:100DA000508B2F5F3F4F31962830310589F740FF38
:100DB0000AC041FF03C0FC01658302C0FC016683D9
:100DC000FC01618302C0FC016283DF91CF91089531
:100DD000803A28E0920721F460E183E063CD089532
:100DE000803B28E0920721F460E283E05BCD089528
:100DF000803A29E0920721F460E184E053CD089520
:100E0000803B29E0920721F460E284E04BCD089515
:100E1000803A2AE0920721F460E185E043CD08950D
:100E2000803A9B4019F460E186E03CCD08950F9331
:100E30001F93CF93DF9300D000D0CDB7DEB70983E7
:100E40001A832B833C834D831E82BE016F5F7F4FCD
:100E500060D72696CDBFDEBFDF91CF911F910F9156
:100E60000895FB018081E82FE695E695E69540E23E
:100E7000E49FF0011124FA5F877021E030E0A901BE
:100E800002C0440F551F8A95E2F746830895FB017F
:100E90008081E82FE695E695E69540E2E49FF00133
:100EA0001124FA5F877021E030E0A90102C0440FED
:100EB000551F8A95E2F74583089543E050E061E0CD
:100EC00080EE97E05EDF43E050E062E080EE97E086
:100ED00058DF43E050E060E180E696E052DF41E019
:100EE00050E460E280E696E04CDF40E05BE160E2E7
:100EF00080E896E046DF40E05BE162E080EA96E071
:100F000040DF40E05BE164E080EA96E03ADF43E006
:100F100050E062E080E696E034DF43E050E068E0D5
:100F200080E696E02EDF43E050E068E080EA96E05D
:100F300028DF43E050E061E080E696E022DF43E016
:100F400050E068E080E096E01CDF41E050E060E1C6
:100F500080E896E016DF43E050E062E080E696E04D
:100F600010DF43E050E068E080E696E00ADF40E012
:100F700050E064E080E696E004DF43E050E060E1AA
:100F800080EA96E0FEDE40E050E061E080E096E03E
:100F9000F8DE40E050E064E080E096E0F2DE40E021
:100FA00050E062E080E296E0ECDE43E050E068E092
:100FB00080E496E0E6DE40E050E064E080E496E025
:100FC000E0DE43E050E068E080E696E0DADE40E014
:100FD00050E064E080E696E0D4DE43E050E068E074
:100FE00080E896E0CEDE40E050E064E080E896E005
:100FF000C8CE0895811522E0920761F480914D22B8
:1010000091E0980F90934D22811112C062E081E02F
:1010100049CC08958034924059F480914C2291E05B
:10102000980F90934C22811103C062E082E03ACC89
:101030000895811522E0920759F480914D22815044
:1010400080934D22811111C062E081E041CC08956E
:101050008034924051F480914C22815080934C22F4
:10106000811103C062E082E033CC0895EF92FF92D9
:101070001F93CF93DF931F921F92CDB7DEB77C01F2
:101080008FB78983F8941981C701B4DFF701808194
:10109000816080831FBF809153238F3F09F4FFCF6E
:1010A0008FB78A83F8949A81E2E5F3E281818F5FBA
:1010B00081839FBF0F900F90DF91CF911F91FF9081
:1010C000EF9008951F920F920FB60F9211240BB656
:1010D0000F922F933F934F935F936F937F938F93D1
:1010E0009F93AF93BF93EF93FF934091240250914E
:1010F0002502E0915A23F0915B2361E080E092E0C9
:101100001995FF91EF91BF91AF919F918F917F9131
:101110006F915F914F913F912F910F900BBE0F9068
:101120000FBE0F901F9018951F920F920FB60F923F
:1011300011240BB60F922F933F934F935F936F93AE
:101140007F938F939F93AF93BF93EF93FF934091C0
:101150002C0250912D02E0915A23F0915B2362E022
:1011600080E092E01995FF91EF91BF91AF919F912F
:101170008F917F916F915F914F913F912F910F9040
:101180000BBE0F900FBE0F901F9018951F920F92DD
:101190000FB60F9211240BB60F922F933F934F93DC
:1011A0005F936F937F938F939F93AF93BF93EF93CF
:1011B000FF934091340250913502E0915A23F0910F
:1011C0005B2364E080E092E01995FF91EF91BF917D
:1011D000AF919F918F917F916F915F914F913F91CF
:1011E0002F910F900BBE0F900FBE0F901F90189570
:1011F0001F920F920FB60F9211240BB60F922F93DE
:101200003F934F935F936F937F938F939F93AF938E
:10121000BF93EF93FF9340913C0250913D02E091C8
:101220005A23F0915B2368E080E092E01995FF91EA
:10123000EF91BF91AF919F918F917F916F915F914E
:101240004F913F912F910F900BBE0F900FBE0F90BB
:101250001F9018951F920F920FB60F9211240BB684
:101260000F922F933F934F935F936F937F938F933F
:101270009F93AF93BF93EF93FF934091640250917C
:101280006502E0915823F091592361E080E492E0F7
:101290001995FF91EF91BF91AF919F918F917F91A0
:1012A0006F915F914F913F912F910F900BBE0F90D7
:1012B0000FBE0F901F9018951F920F920FB60F92AE
:1012C00011240BB60F922F933F934F935F936F931D
:1012D0007F938F939F93AF93BF93EF93FF9340912F
:1012E0006C0250916D02E0915823F091592362E015
:1012F00080E492E01995FF91EF91BF91AF919F919A
:101300008F917F916F915F914F913F912F910F90AE
:101310000BBE0F900FBE0F901F9018951F920F924B
:101320000FB60F9211240BB60F922F933F934F934A
:101330005F936F937F938F939F93AF93BF93EF933D
:10134000FF934091740250917502E0915823F091FF
:10135000592364E080E492E01995FF91EF91BF91E9
:10136000AF919F918F917F916F915F914F913F913D
:101370002F910F900BBE0F900FBE0F901F901895DE
:101380001F920F920FB60F9211240BB60F922F934C
:101390003F934F935F936F937F938F939F93AF93FD
:1013A000BF93EF93FF9340917C0250917D02E091B7
:1013B0005823F091592368E080E492E01995FF9159
:1013C000EF91BF91AF919F918F917F916F915F91BD
:1013D0004F913F912F910F900BBE0F900FBE0F902A
:1013E0001F901895BF92CF92DF92EF92FF920F93CA
:1013F0001F93CF93DF931F92CDB7DEB78C017B0194
:10140000811522E0920771F461E270E082E01FD161
:10141000C82ED12C60E270E082E019D1DC2CCC2403
:10142000C82A10C080349240C1F565E270E082E0C5
:101430000ED1C82ED12C64E270E082E008D1DC2C01
:10144000CC24C82A8FB78983F894B980C801D2DD2B
:10145000F801808192E09083C486D586F7012581CA
:101460003681F801208F318FF7019281F801928344
:10147000F7019481F8019483F7019381F801938334
:10148000F7019181F80191838170F7019081892B97
:10149000F8018083C801CDDDBFBE0F90DF91CF91F1
:1014A0001F910F91FF90EF90DF90CF90BF90089524
:1014B000DF92EF92FF920F931F93CF93DF931F92D0
:1014C000CDB7DEB78C017B018FB78983F894D980C3
:1014D000C80190DDF8018081807CF7018083F801EC
:1014E000808D918DF70185839683F8018281F701C4
:1014F0008283F8018481F7018483F8018381F701F5
:101500008383F8018181F7018183C80192DDDFBE09
:101510000F90DF91CF911F910F91FF90EF90DF908F
:101520000895AF92BF92CF92DF92EF92FF920F9306
:101530001F93CF93DF931F92CDB7DEB76C01B62E0A
:101540007A01862F837029F4962F9695969582E0DE
:1015500002C0962F80E090FF8F5F8601005E1F4FD4
:1015600098E0899F000D111D11248FB78983F8948D
:10157000A980C6013FDDF7018081F8018083F70172
:101580008281F8018283F7018181F8018183B0FEB5
:1015900004C0F7018381F8018683C6014ADDAFBE2E
:1015A0000F90DF91CF911F910F91FF90EF90DF90FF
:1015B000CF90BF90AF900895AF92BF92CF92DF923D
:1015C000EF92FF920F931F93CF93DF931F92CDB7AC
:1015D000DEB76C01B62E7A01862F837029F4962F20
:1015E0009695969582E002C0962F80E090FF8F5FDF
:1015F0008601005E1F4F98E0899F000D111D112488
:101600008FB78983F894A980C601F4DCF801808142
:10161000F7018083F8018281F7018283F8018181DB
:10162000F7018183B0FE04C0F8018681F70183834E
:10163000C601FFDCAFBE0F90DF91CF911F910F91DC
:10164000FF90EF90DF90CF90BF90AF9008954091C2
:10165000CA01E62FF72F8093CA0184914093CA01F3
:101660000895CF93DF93E0914E22F0914F22848131
:1016700083FF08C08860848383E0838386EF809340
:10168000582283C0982F947131F083E083838FEFC9
:10169000809358227AC086FF43C0CEE4D2E2AA816A
:1016A000BB818C819D8114962D913C911597821759
:1016B00093076CF49C012F5F3F4F2093522230938D
:1016C0005322A80FB91F11968C9187835EC0809119
:1016D00054229091552218962D913C91199782177A
:1016E0009307C8F420915622222321F0868181603D
:1016F00086834BC016962D913C911797AC014F5F96
:101700005F4F4093542250935522D901A80FB91F1F
:101710008C9187833AC083E083831092582235C02E
:10172000882384F5AEE4B2E21296CD91DC91139752
:1017300016968D919C911797288539858217930766
:10174000D8F46E817F819C012F5F3F4F20935422FC
:10175000309355224781DB01A80FB91F4C93888530
:1017600099852817390718F482E083830EC087E033
:1017700083831092582209C083E0838389EF80938A
:10178000582203C08BEF80935822DF91CF910895A8
:101790001F920F920FB60F9211240BB60F922F9338
:1017A0003F934F935F936F937F938F939F93AF93E9
:1017B000BF93EF93FF9355DFFF91EF91BF91AF91EF
:1017C0009F918F917F916F915F914F913F912F9159
:1017D0000F900BBE0F900FBE0F901F9018951F9289
:1017E0000F920FB60F9211240BB60F922F933F93C7
:1017F0004F935F936F937F938F939F93AF93BF9319
:10180000EF93FF932EDFFF91EF91BF91AF919F91E7
:101810008F917F916F915F914F913F912F910F9099
:101820000BBE0F900FBE0F901F9018954F925F92B6
:101830006F927F928F929F92AF92BF92EF92FF92A0
:101840000F931F93CF937C014A015B01280139015B
:10185000FC01848182FF16C0D901C801689412F886
:10186000B695A795979587951694D1F7B901A801D4
:10187000032E36E176956795579547953A95D1F7BA
:10188000302D15C0D901C801689413F8B695A795F5
:10189000979587951694D1F7B901A801032E37E1E2
:1018A00076956795579547953A95D1F7302D8815D8
:1018B0009905AA05BB0508F4A6C084169506A606D8
:1018C000B70608F4A2C0F701848182FD04C0880C29
:1018D000991CAA1CBB1CC301B201A50194010E9462
:1018E000671E2F3F31054105510508F490C08FEF69
:1018F00090E0A0E0B0E0C9EF05C0281739074A071B
:101900005B0758F0880F991FAA1FBB1FCD3F0CF42F
:101910008160CF5FC73089F74FC0CC230CF04CC03B
:10192000D501C401880F991FAA1FBB1F880F991FDB
:10193000AA1FBB1F880F991FAA1FBB1F481A590A4D
:101940006A0A7B0ACE3FF4F48DEF9FEF8C1B91095E
:10195000C7FD939504C0440C551C661C771C8A95E2
:10196000D2F7D501C401B695A79597958795BC0187
:10197000CD01640D751D861D971DA50194010E9462
:10198000671E37C083E08C0FA501940104C0220FAD
:10199000331F441F551F8A95D2F7DA01C901B69546
:1019A000A79597958795BC01CD01640D751D861D82
:1019B000971D0E94671E1DC083E08C0FA501940136
:1019C00004C0220F331F441F551F8A95D2F7DA0136
:1019D000C901B695A79597958795BC01CD01640D72
:1019E000751D861D971D0E94671E215031094109F2
:1019F0005109832F8F70C295C07FC82BF701C78311
:101A0000268381E018C080E016C080E014C0D501B4
:101A1000C401880F991FAA1FBB1F880F991FAA1FF7
:101A2000BB1F880F991FAA1FBB1F481A590A6A0AB1
:101A30007B0AC9EF89CFCF911F910F91FF90EF9053
:101A4000BF90AF909F908F907F906F905F904F90DE
:101A500008950F931F93CF93DF93EC018B010097B1
:101A600009F403C1803C910529F460E180E00E9403
:101A70005204FBC0C03881E0D80729F462E080E05E
:101A80000E945204F2C0C115E1E0DE0729F461E0D2
:101A900080E00E945204E9C0C038F3E0DF0729F477
:101AA00061E081E00E945204E0C0C03983E0D807C1
:101AB00029F461E082E00E945204D7C0C115E2E03F
:101AC000DE0729F462E081E00E945204CEC0C034F7
:101AD000F2E0DF0729F462E082E00E945204C5C010
:101AE000C03283E0D80729F464E082E00E94520407
:101AF000BCC0C115E8E0DE0729F461E083E00E9484
:101B00005204B3C0C115F9E0DF0729F461E084E0B5
:101B10000E945204AAC0C1158AE0D80729F461E0E6
:101B200085E00E945204A1C0C115EBE0DE0729F454
:101B300061E086E00E94520498C0C034F8E0DF07FC
:101B400029F462E083E00E9452048FC0C03489E02F
:101B5000D80729F462E084E00E94520486C0C034B1
:101B6000EAE0DE0729F462E085E00E9452047DC0CD
:101B7000C039F8E0DF0729F464E083E00E945204F2
:101B800074C0C03989E0D80729F464E084E00E9479
:101B900052046BC0C039EAE0DE0729F464E085E056
:101BA0000E94520462C0C039FBE0DF0729F464E000
:101BB00086E00E94520459C0C03C88E0D80729F44E
:101BC00068E083E00E94520450C0C03CE9E0DE07B8
:101BD00029F468E084E00E94520447C0C03AF8E06B
:101BE000DF0729F460E183E00E9452043EC0C03A5E
:101BF00089E0D80729F460E184E00E94520435C0EE
:101C0000C03AEAE0DE0729F460E185E00E94520470
:101C10002CC0C03AFBE0DF0729F460E186E00E94B7
:101C2000520423C0C03B88E0D80729F460E283E077
:101C30000E9452041AC0C03BE9E0DE0729F460E2CA
:101C400084E00E94520411C0C038F4E0DF0729F498
:101C500060E483E00E94520408C0C03A84E0D807E0
:101C600021F460E485E00E9452048D818F738D839E
:101C7000F80195818481892B9681911198E0892BB7
:101C80008D83F801408151816281738100E814E8FD
:101C90002EE130E0CE01CADD9C8198609C839C815E
:101CA00090619C83DF91CF911F910F910895CF9206
:101CB000DF92EF92FF920F931F93CF93DF93EC018C
:101CC000D901C801B695A7959795879548175907E3
:101CD0006A077B0778F46A017B01CC0CDD1CEE1CE3
:101CE000FF1CC901B801A70196010E94671E21507F
:101CF000310902C020E030E0832F8F708F832E8364
:101D0000DF91CF911F910F91FF90EF90DF90CF90D7
:101D10000895DF92EF92FF920F931F93CF93DF937B
:101D20001F92CDB7DEB77C018B01009709F4CFC1BC
:101D3000803C910529F460E180E00E945204C7C113
:101D400080E8E81681E0F80629F462E080E00E946D
:101D50005204BDC1E114E1E0FE0629F461E080E037
:101D60000E945204B4C1F0E8EF16F3E0FF0629F434
:101D700061E081E00E945204AAC130E9E31633E039
:101D8000F30629F461E082E00E945204A0C1E1144C
:101D900082E0F80629F462E081E00E94520497C1D3
:101DA000E0E4EE16E2E0FE0629F462E082E00E9442
:101DB00052048DC1F0E2EF16F3E0FF0629F464E06F
:101DC00082E00E94520483C1E11438E0F30629F452
:101DD00061E083E00E9452047AC1E11489E0F806D0
:101DE00029F461E084E00E94520471C1E114EAE048
:101DF000FE0629F461E085E00E94520468C1E11406
:101E0000FBE0FF0629F461E086E00E9452045FC116
:101E100030E4E31638E0F30629F462E083E00E9440
:101E2000520455C180E4E81689E0F80629F462E01E
:101E300084E00E9452044BC1E0E4EE16EAE0FE06A4
:101E400029F462E085E00E94520441C1F0E9EF16F6
:101E5000F8E0FF0629F464E083E00E94520437C1F1
:101E600030E9E31639E0F30629F464E084E00E94E7
:101E700052042DC180E9E8168AE0F80629F464E0EE
:101E800085E00E94520423C1E0E9EE16EBE0FE0675
:101E900029F464E086E00E94520419C1F0ECEF16C8
:101EA000F8E0FF0629F468E083E00E9452040FC1C5
:101EB00030ECE31639E0F30629F468E084E00E9490
:101EC000520405C180EAE81688E0F80669F460E18A
:101ED00083E00E945204E0EAF8E084818F7E8483EC
:101EE000F8012481225053C0F0EAEF16F9E0FF0612
:101EF00029F460E184E00E945204E9C030EAE3166C
:101F00003AE0F30629F460E185E00E945204DFC064
:101F100080EAE8168BE0F80629F460E186E00E948A
:101F20005204D5C0E0EBEE16E8E0FE0629F460E2CC
:101F300083E00E945204CBC0F0EBEF16F9E0FF06FD
:101F400029F460E284E00E945204C1C030E8E31644
:101F500034E0F30629F460E483E00E945204B7C041
:101F600080EAE81684E0F80629F460E485E00E943F
:101F70005204ADC0F70184818F7E8483FB012481EC
:101F80002250C701F0EAEF16F8E0FF0649F480910D
:101F90004E0684FDA5C00F2EF1E1DF2EF02DA4C06A
:101FA000803B38E0930791F0803AE9E09E0749F4DE
:101FB00030916E0634FD9BC00F2EF9E1DF2EF02D1F
:101FC00016C0803BF9E09F07F1F004C00F2EF5E149
:101FD000DF2EF02D803A3AE0930749F480918E0687
:101FE00084FD8AC00F2EF1E2DF2EF02D15C0803A5D
:101FF0009B4091F48091AE0684FD0AC00F2EF9E259
:10200000DF2EF02D09C00F2EFDE1DF2EF02D04C0D4
:102010000F2EFDE2DF2EF02DED2DE695E695E695EF
:1020200030E2E39FF0011124FA5F3D2D377081E02B
:1020300090E0032E02C0880F991F0A94E2F7818373
:10204000223010F040E001C040E4DF015096A30FC1
:10205000B11D9FB79983F89439812C9127702C93E7
:102060009C91942B9C933FBF8583F7018581806C65
:102070008583F80184818D7F813029F4F701858182
:102080008260858304C0F70185818D7F8583F80197
:102090008581882329F0F70185818460858304C0C8
:1020A000F70185818B7F8583F801408151816281B1
:1020B000738100E814E82EE130E0C701F8DDF70194
:1020C0008481886084838481806184831AC0F7015D
:1020D00084818F7E8483F80124812250C70160CFE0
:1020E0000F2EF5E1DF2EF02D80EA98E06ACF0F2E5B
:1020F000FDE1DF2EF02D7BCF0F2EF5E2DF2EF02D50
:102100008BCF0F90DF91CF911F910F91FF90EF90A8
:10211000DF900895FC010396818392832FEF3FEFB8
:1021200023833483858396838783908710820895E1
:10213000FC01108611860895CF93DF939C01FB016B
:10214000DC011196CD91DC911297C283D3838C81EF
:102150009D81848395838C819D81DC0112966D9392
:102160007C9313976C837D8320873187F90180816D
:102170008F5F8083DF91CF910895CF93DF93EB0141
:10218000488159814F3F2FEF520721F4FC01A7816D
:10219000B0850DC0DC01139601C0DF011296ED91F0
:1021A000FC9113972081318142175307B0F71296A3
:1021B000ED91FC911397EA83FB83C483D583AC83B1
:1021C000BD831296CD93DC93139788879987FC0182
:1021D00020812F5F2083DF91CF910895CF93DF93EC
:1021E000FC01A085B185C281D381848195818C83D6
:1021F0009D83C481D581828193818A839B8311963B
:102200008D919C911297E817F90731F4848195819B
:1022100011968D939C931297108611868C91815004
:102220008C938C91DF91CF9108950F931F938B0125
:1022300071E1FC017083319762E26083319723E39F
:102240002083012E000C220B330B31970083319732
:1022500010833197208331971082319720E82083B3
:1022600031971082319722E02083319723E0208339
:10227000319724E02083319725E02083319726E0B1
:102280002083319727E02083319728E020833197FE
:1022900029E02083319720E12083319770833197A3
:1022A00022E12083319723E12083319724E12083A9
:1022B000319725E12083319726E12083319727E16B
:1022C0002083319728E12083319729E120833197BA
:1022D00020E22083319721E2208331976083319778
:1022E00023E220833197408331975083319726E250
:1022F0002083319727E22083319728E2208331978A
:1023000029E22083319720E32083319721E3208342
:1023100087971F910F910895F894E0E7F0E083818B
:102320008A7F8383E0E0F8E080E09AEF86A397A3BA
:1023300091E09683A0EAB0E012968C9112978160AA
:1023400012968C9390837894A091B422B091B52288
:102350000D900DBE0D900EBEFF91EF91DF91CF91CC
:10236000BF91AF919F918F917F916F915F914F91AD
:102370003F912F911F910F91FF90EF90DF90CF90A1
:10238000BF90AF909F908F907F906F905F904F9095
:102390003F902F901F900F900FBE0F90089581E0F7
:1023A00008950F920FB6F8940F921F9211242F9256
:1023B0003F924F925F926F927F928F929F92AF92D5
:1023C000BF92CF92DF92EF92FF920F931F932F93C2
:1023D0003F934F935F936F937F938F939F93AF93AD
:1023E000BF93CF93DF93EF93FF93A091B422B0916B
:1023F000B5220DB60D920EB60D92F5D5A091B42270
:10240000B091B5220D900DBE0D900EBEFF91EF91D3
:10241000DF91CF91BF91AF919F918F917F916F91FC
:102420005F914F913F912F911F910F91FF90EF90EE
:10243000DF90CF90BF90AF909F908F907F906F90E4
:102440005F904F903F902F901F900F900FBE0F9076
:1024500008950F920FB6F8940F921F9211242F92A5
:102460003F924F925F926F927F928F929F92AF9224
:10247000BF92CF92DF92EF92FF920F931F932F9311
:102480003F934F935F936F937F938F939F93AF93FC
:10249000BF93CF93DF93EF93FF93A091B422B091BA
:1024A000B5220DB60D920EB60D9268D481119BD552
:1024B000A091B422B091B5220D900DBE0D900EBE2C
:1024C000FF91EF91DF91CF91BF91AF919F918F914C
:1024D0007F916F915F914F913F912F911F910F913C
:1024E000FF90EF90DF90CF90BF90AF909F908F9034
:1024F0007F906F905F904F903F902F901F900F9024
:102500000FBE0F901895CF93DF93EC0127D4CE0127
:102510000E94911EEC01EAD4CE01DF91CF91089583
:10252000CF93DF93009731F0EC0118D4CE010E94D5
:10253000291FDCD4DF91CF9108950FB6F8940F9244
:10254000FC01928D0F900FBE81E0911180E0089503
:102550000F931F93CF93DF93EC01042F1A8D4C8DB3
:102560004423B9F1011116C050E08A819B810E9479
:10257000B21F2C8D8A819B81820F911D8A839B8340
:102580002C813D818217930720F1888199818A836C
:102590009B831FC050E08E819F810E94B21F8C8D53
:1025A00090E09195819591092E813F81280F391FE7
:1025B0002E833F83488159812417350730F42C81BD
:1025C0003D81820F931F8E839F83023011F411117E
:1025D00011501F5F1A8F80E0DF91CF911F910F91F3
:1025E0000895FC01448D4423A9F050E026813781F1
:1025F000240F351F26833783848195812817390757
:1026000020F08081918186839783CB0166817781D9
:102610000C94B21F0895EF92FF920F931F93CF93E4
:102620008C010FB6F8940F92FC01C68D1C169CF419
:102630008189811106C00FC0F8018189811105C00F
:102640000AC07801F1E1EF0EF11CC70159D58111E3
:10265000D3D5C15089F78FEFF801868F0F900FBE49
:102660000FB6F8940F92C58D1C169CF480858111CD
:1026700006C00FC0F8018085811105C00AC078012D
:10268000F8E0EF0EF11CC7013BD58111B5D5C15063
:1026900089F78FEFF801858F0F900FBECF911F91B3
:1026A0000F91FF90EF900895CF93DF93EC010FB659
:1026B000F8940F92E881F9818B8D2C8D90E030E0B9
:1026C000829FA001839F500D929F500D11244E0FA9
:1026D0005F1F4C835D831A8EEA83FB830197829F81
:1026E000A001839F500D929F500D1124CF01840FA4
:1026F000951F8E839F838FEF8D8F8E8F61110AC000
:102700008885882369F0CE010896FAD4882341F0A1
:1027100048DE06C0CE010896FDDCCE014196FADC0B
:102720000F900FBE81E0DF91CF9108950F931F931B
:10273000CF93DF93082F162F869FC00111244F9649
:10274000E2DEEC01009769F0111103C088839983E0
:1027500003C04F96888399830B8F1C8F61E0CE0155
:10276000A3DFCE01DF91CF911F910F910895AF921A
:10277000BF92CF92DF92EF92FF920F931F93CF936E
:10278000DF93CDB7DEB72597CDBFDEBF8C016B01E0
:102790004C835D83A22EB12C7C0188E0E80EF11CF5
:1027A0000FB6F8940F92F801928D838D981718F058
:1027B000F2E0AF1215C04A2DB601C801C9DEF8011A
:1027C0009189992339F0C80141969AD4882321F040
:1027D000E8DD02C08111E5DD0F900FBE81E046C04B
:1027E0008C819D81892B21F40F900FBE80E03EC02B
:1027F000B11005C0CE010196C9D4BB24B3940F908B
:102800000FBEACD20FB6F8940F92F801858D8F3FB2
:1028100009F4158EF801868D8F3F09F4168E0F90FE
:102820000FBEBE016C5F7F4FCE010196BAD48111FD
:1028300019C00FB6F8940F92F801928D0F900FBE49
:10284000838D98130BC06C817D81C70132D4C80180
:10285000E2DE4CD38111A4CFA4DDA2CFC801DBDE20
:1028600045D39ECFC801D7DE41D380E02596CDBFAA
:10287000DEBFDF91CF911F910F91FF90EF90DF901E
:10288000CF90BF90AF900895EF92FF920F931F9358
:10289000CF93DF938A01FC01528D338D531710F0D3
:1028A0002230F1F4422F7801EC011E8D8A8DCE0189
:1028B0004FDE1F3F79F489898823A1F0CE0141962C
:1028C0001FD4882389F0E114F10481F081E0F7013D
:1028D00080830DC0FF24F394F10EFE8E81E007C0CB
:1028E00080E005C081E003C081E001C081E0DF91AC
:1028F000CF911F910F91FF90EF900895AF92BF92EB
:10290000CF92DF92EF92FF920F931F93CF93DF93BB
:10291000CDB7DEB72597CDBFDEBF8C015B014C8301
:102920005D83E12C6C0181E1C80ED11C0FB6F894D7
:102930000F92F801F28CFF2091F0B501C80151DE31
:10294000FA94F801F28E8085882329F0C801089650
:10295000D7D3811126DD0F900FBE81E045C08C8159
:102960009D81892B21F40F900FBE80E03DC0E110C6
:1029700005C0CE0101960AD4EE24E3940F900FBE59
:10298000EDD10FB6F8940F92F801858D8F3F09F4C1
:10299000158EF801868D8F3F09F4168E0F900FBEAD
:1029A000BE016C5F7F4FCE010196FBD3811113C036
:1029B000C801C3DD882359F06C817D81C60179D3BC
:1029C000C80129DE93D28111B1CFEBDCAFCFC801B2
:1029D00022DE8CD2ABCFC8011EDE88D2C801ADDDAD
:1029E000882309F4A3CF80E02596CDBFDEBFDF9119
:1029F000CF911F910F91FF90EF90DF90CF90BF90FC
:102A0000AF900895CF93DF93EC010FB6F8940F9237
:102A10008D8D8F3F09F41D8E8E8D8F3F09F41E8E94
:102A20000F900FBE8A8D811103C0CE01419651D304
:102A3000CE01F1DDDF91CF910895E0917322F09105
:102A400074228081811107C08FEF9FEF80935C22F9
:102A500090935D220895E0917322F0917422058095
:102A6000F681E02D0680F781E02D828193818093AD
:102A70005C2290935D220895C7E8D2E2888182307B
:102A8000E8F38FDCFBCF0F931F93CF93DF93EC0121
:102A900000916522109166228091B4229091B52216
:102AA00002969CDBC00FD11FE091B422F091B522B9
:102AB000C283D383C017D10760F46091B4227091B0
:102AC000B52280917122909172226E5F7F4F55DB0B
:102AD00016C06091B4227091B522809173229091BA
:102AE00074226E5F7F4F49DB80915C2290915D2262
:102AF000C817D90720F4C0935C22D0935D22DF91E0
:102B0000CF911F910F9108954F925F926F927F9294
:102B10008F929F92AF92BF92CF92DF92EF92FF92ED
:102B20000F931F93CF93DF934C016B015A0129013F
:102B3000CA01E9DC3C01892B09F4D3C086E290E0AC
:102B4000E2DCEC01892B59F06F8A788E81E0A81ABB
:102B5000B108A60CB71CC114D10421F41FC0C301D5
:102B6000DFDCBFC0D6018C91898F8C918823A1F0C6
:102B7000AE01465E5F4FF6013196B8E0CB0ED11C38
:102B8000CF012191DA012D93AD01DC018C918823D5
:102B900019F0CE16DF06A1F718A201C0198E053074
:102BA00008F004E00E8B6E01B2E0CB0ED11CC60122
:102BB000BFDACE010C96BCDAC887D98785E090E0F1
:102BC000801B91098C879D87CA8BDB8B19A21AA267
:102BD0001BA21CA21DA2A201B401C50126DB888391
:102BE0009983E114F10419F0F701C083D1830FB682
:102BF000F8940F92809167228F5F80936722809173
:102C0000B4229091B522892B69F5C093B422D09358
:102C1000B522809167228130A9F507E812E20F2ED4
:102C2000F4EBEF2EF2E2FF2EF02DC80173DA075F0E
:102C30001F4F0E151F05C9F78EE792E26BDA85E785
:102C400092E268DA88E692E265DA8EE792E28093B1
:102C500073229093742285E792E28093712290937D
:102C6000722210C08091632281110CC0E091B422C5
:102C7000F091B52296898E89891720F0C093B422ED
:102C8000D093B52280915E228F5F80935E228E89E1
:102C900090916422981710F48093642290E09C0134
:102CA000220F331F220F331F220F331F820F931F58
:102CB000B60189579D4D40DA0F900FBE8091632277
:102CC000882359F0E091B422F091B52296898E893B
:102CD000981728F466DB81E005C081E003C081E03D
:102CE00001C08FEFDF91CF911F910F91FF90EF9077
:102CF000DF90CF90BF90AF909F908F907F906F901C
:102D00005F904F900895EF92FF920F930F2EFAE588
:102D1000EF2EF2E2FF2EF02D00E020E030E045E55E
:102D200050E064E170E28CE395E1EEDE813091F4F5
:102D3000CCD2813079F4F8948FEF9FEF80935C22AE
:102D400090935D2281E0809363221092652210921D
:102D50006622E2DA0F91FF90EF9008958091592258
:102D60008F5F8093592208950FB6F8940F92809147
:102D70006522909166220F900FBE0895DF92EF9228
:102D8000FF920F931F93CF93DF938091592281116C
:102D90009AC0E0906522F09066228FEFE81AF80A58
:102DA000E0926522F0926622E114F104B1F4809180
:102DB000732290917422209171223091722220937B
:102DC00073223093742280937122909372228091A7
:102DD0005F228F5F80935F2230DE80915C22909132
:102DE0005D22E816F90610F4D12C4FC0D12CE091E9
:102DF0007322F09174228081811107C08FEF9FEFC1
:102E000080935C2290935D2240C0E0917322F09108
:102E100074220580F681E02DC681D7818A819B814D
:102E2000E816F90628F480935C2290935D222DC069
:102E30008E010E5F1F4FC801D1D98C899D89892BC6
:102E400019F0CE010C96CAD98E89909164229817F8
:102E500010F48093642290E09C01220F331F220F14
:102E6000331F220F331F820F931FB80189579D4DC7
:102E700063D9E091B422F091B5229E898689981792
:102E800008F4B5CFDD24D394B2CFE091B422F09111
:102E9000B522868990E0FC01EE0FFF1FEE0FFF1FA9
:102EA000EE0FFF1F8E0F9F1FFC01E957FD4D808124
:102EB000823010F0DD24D39480916022882369F061
:102EC000DD24D3940AC08091612290916222019600
:102ED0008093612290936222D12C8D2DDF91CF912E
:102EE0001F910F91FF90EF90DF900895DF92EF9286
:102EF000FF920F931F93CF93DF930FB6F8940F9227
:102F000080915922815080935922809159228111B8
:102F10005DC080916722811130C05BC0D7011596DA
:102F2000ED91FC911697C681D781CE010C9656D9AA
:102F30008E010E5F1F4FC80151D98E899091642276
:102F4000981710F48093642290E09C01220F331FA5
:102F5000220F331F220F331F820F931FB80189578F
:102F60009D4DEAD8E091B422F091B5229E898689E0
:102F7000981768F0D09260220AC0C0E0D0E00F2E0F
:102F8000F8E6EF2EF2E2FF2EF02DDD24D394F701C8
:102F900080818111C3CFCD2B09F04FDDC09161221B
:102FA000D0916222209759F011E0E8DE8111109350
:102FB00060222197D1F710926122109262228091B3
:102FC0006022882329F0EDD981E003C080E001C0B0
:102FD00080E00F900FBEDF91CF911F910F91FF9076
:102FE000EF90DF90089580915922882321F081E0AD
:102FF0008093602208951092602220916422822F93
:1030000090E0FC01EE0FFF1FEE0FFF1FEE0FFF1F02
:10301000E80FF91FE957FD4D3081311111C02150E2
:10302000822F90E0FC01EE0FFF1FEE0FFF1FEE0F4F
:10303000FF1FE80FF91FE957FD4D3081332379F366
:10304000AC01440F551F440F551F440F551F480F27
:10305000591FDA01A957BD4D1196ED91FC911297B8
:103060000280F381E02D1196ED93FC931297465761
:103070005D4DE417F50729F442815381FD01418339
:103080005283FC01EE0FFF1FEE0FFF1FEE0FFF1F1D
:103090008E0F9F1FFC01E957FD4D0180F281E02D4D
:1030A000868197818093B4229093B52220936422E5
:1030B0000895CF93DF93EB016091B4227091B52214
:1030C000645F7F4F5AD861E0CE01DDDCDF91CF91A4
:1030D00008950F931F93CF938B01C42F6091B42257
:1030E0007091B522645F7F4F27D8CC2311F00FEF8A
:1030F0001FEF6C2FC801C7DCCF911F910F9108956E
:103100000F931F93CF93DF93DC011596ED91FC9104
:103110001697C681D7818E01045F1F4FC8015ED804
:103120008091592281111BC00A501109C80156D83B
:103130008E8990916422981710F48093642290E015
:103140009C01220F331F220F331F220F331F820FC8
:10315000931FB80189579D4D0E949C1005C0B8016E
:1031600088E692E20E949C10E091B422F091B52290
:103170009E898689891720F481E08093602201C0AE
:1031800080E0DF91CF911F910F91089520915F22F0
:10319000FC012083209165223091662221833283B5
:1031A00008950FB6F8940F9220916522309166220F
:1031B000DC0111964D915C911297E0915F22FC9198
:1031C000FE1719F02417350798F4241B350BFB0163
:1031D000408151812417350738F4421B530B40833B
:1031E0005183D4DF80E005C01082118281E001C0EC
:1031F00081E00F900FBE089581E0809360220895D2
:1032000080916322882331F080915922882321F014
:1032100080E0089581E0089582E00895FC016283D2
:103220007383808791874617570790F0421B530B93
:103230008485958548175907E0F4BF016E5F7F4F7D
:103240008091BC229091BD220E94BD1080E0089523
:103250004217530718F46217730768F4BF016E5FD3
:103260007F4F8091BE229091BF220E94BD1080E0CE
:10327000089581E0089581E008950FB6F8940F92C3
:103280008091BA229091BB22892BE1F489EC92E2E1
:103290000E948A1080EC92E20E948A1089EC92E2ED
:1032A0008093BE229093BF2280EC92E28093BC2256
:1032B0009093BD2240E065E08AE038DA8093BA223C
:1032C0009093BB220F900FBE0895EF92FF920F9341
:1032D000D4DF8091BA229091BB22892B89F00F2EE6
:1032E000F8EBEF2EF2E2FF2EF02D03E020E030E0CD
:1032F00045E550E069E170E285E39AE105DC01C053
:1033000080E00F91FF90EF9008950F931F93CF935C
:10331000DF93CDB7DEB72597CDBFDEBFE091BA22F0
:10332000F091BB22309751F1D90169834A835B83C5
:103330008C839D836630D4F463DF823059F420E0BF
:10334000A801BE016F5F7F4F8091BA229091BB228E
:103350000EDA15C020E040E050E0BE016F5F7F4F05
:103360008091BA229091BB2202DA09C020E0AD011F
:10337000BE016F5F7F4FCF0187DA01C080E02596E5
:10338000CDBFDEBFDF91CF911F910F910895AF9216
:10339000BF92CF92DF92EF92FF920F931F93CF9342
:1033A000DF936C01E1DC7C018091B6229091B72221
:1033B000E816F90608F047C02FC00580F681E02D19
:1033C000A080B180C681D7818E010E5F1F4FC801DA
:1033D0000E94EE10E889F989CE0119958A8982FF49
:1033E0001BC08C859D858A0D9B1DA816B90660F4AF
:1033F0008A839B83C887D987B8018091BE22909128
:10340000BF220E94BD1008C000E010E020E030E0C4
:10341000A50160E0CE0179DFE091BE22F091BF22EC
:1034200080818111CACF8091BC229091BD2280936E
:10343000BE229093BF22E093BC22F093BD2281E094
:10344000F601808302C0F6011082E092B622F0926B
:10345000B722C701DF91CF911F910F91FF90EF909D
:10346000DF90CF90BF90AF900895CF93DF9300D0BF
:1034700000D0CDB7DEB7CE0101965C01E82EFB2C63
:10348000E091BE22F091BF228081882309F4CFC051
:103490000580F681E02DC080D18060DCC50177DF3A
:1034A0008C018981811146C00C151D05A0F11EDD1E
:1034B000E091BE22F091BF220580F681E02D86804A
:1034C0009780C40102960E94EE10D40152968C910E
:1034D000529782FF15C01C966D917C911D976C0DC3
:1034E0007D1D9601A801C40199DE882361F000E0EA
:1034F00010E020E030E0A60160E0C40106DF03C078
:103500008E7FF401828BD4015096ED91FC915197FE
:10351000C401199580C040E0B601601B710B809119
:10352000BA229091BB226EDAE1DC811174C00E9454
:10353000D11171C0DBDC6FC0898188230CF46BC0B2
:10354000CC80DD80F60182859385892B21F0C60130
:1035500002960E94EE10CE01069619DFAC01E981B9
:103560000E2E000CFF0BEA30F10508F054C088273E
:10357000E250FF4F8F4FCDC3D60152968C91529798
:10358000816052968C9352972A813B811C966D9153
:103590007C911D97620F731FC60140DE8823D9F10D
:1035A000D6015096ED91FC915197C6011995F601FF
:1035B000828982FF30C04A815B8184859585480F6E
:1035C000591F00E010E020E030E060E0C6019DDE21
:1035D00022C0D60152968C9152978E7F52968C9330
:1035E0001AC0F60182898160828B6A817B8164873F
:1035F0007587640F751F9A01C60110DE0CC0D601D5
:1036000052968C9181FD04C0C6010E94901203C0A5
:103610008E7FF601828B40E050E06E2D7F2D8091F1
:10362000BA229091BB226AD9811186CF29CF96DB2D
:10363000C501ADDE8C01898181117CCFE091BC2276
:10364000F091BD22808141E0811140E0C12CD12C5C
:1036500063CF04C061507109810991096115710539
:1036600081059105B9F70895CF93DF9300D0CDB7C9
:10367000DEB7E12C6894FF24F1F8552453940F2E03
:10368000F1E28F2EF0E29F2EF02D6894442447F84B
:103690000F2EF2EDAF2EF2E2BF2EF02D01EA18E070
:1036A0000F2EF0EACF2EF8E0DF2EF02D0F2EF0E4F3
:1036B0006F2EF6E07F2EF02DC7010E9436088FB7DF
:1036C0008983F8949981D7018C9184608C939FBFF2
:1036D000F701868180FFFCCF568264A175A180E04E
:1036E00090E0DCD120E030EF4FE755E46FD123E3E9
:1036F00033E343E550E464D223E333E343ED5FE394
:1037000000D124EA30E74DE35EE360D16A837B8336
:10371000282E392E9F938F93FB81FF932A812F931D
:103720009F928F921F924F92BF92AF9224D4D50155
:103730009C91CDBFDEBF992359F0E3EDF2E2D801B1
:103740008C9185FFFCCFD6019C9391919111F7CF7D
:1037500020E030E040E050E4BA81AB816B2F7A2F5B
:10376000822D932D29D218168CF4F301558266E12F
:1037700076E185E090E06DDFD30116965C921697B6
:1037800082E08093050616964C9205C082E08093F5
:103790000606F30145826BE07BE882E090E059DFAA
:1037A0008BCFEF92FF920F931F93CF93DF93CDB701
:1037B000DEB72B97CDBFDEBF0E945D070E9442049B
:1037C0000E9424050F2EF0E4EF2EF6E0FF2EF02DE0
:1037D00081E5F701828380E8818380E1809385061B
:1037E00088E0809345068093410684E080934606F6
:1037F000809342061092A7088CE08093A60810924E
:10380000A30883E08093A50888E18093A4086DE075
:1038100070E280EA98E00E94290D01E00093210601
:10382000BE016F5F7F4F80E092E00E94580AAE01B8
:10383000485F5F4F61E080E092E00E94DC0A9A817D
:103840008B818F7880618B83892F817E8A831C8214
:1038500012E01D83088780E48987BE016F5F7F4F78
:1038600080E092E00E94F209AE01485F5F4F61E0A4
:1038700080E092E00E94910AF7018081816080835C
:10388000E0E0F8E0108386E181838FE99FE086A382
:1038900097A38EEE92E080A791A7E0E0F6E0118377
:1038A0001683E12CF12C20E030E048EE53E062E397
:1038B00070E284E39BE128D943E060E081E00E946C
:1038C000961380935C2390935D2320E040E050E0CA
:1038D00060E070E00E94B71326E030E240E060E074
:1038E00083E390E20E9498060EDA80E090E02B9647
:1038F000CDBFDEBFDF91CF911F910F91FF90EF9071
:1039000008955058BB27AA270ED01CC10DD130F006
:1039100012D120F031F49F3F11F41EF402C10EF4D5
:10392000E095E7FBF8C0E92F1ED180F3BA176207D4
:1039300073078407950718F071F49EF536C10EF4ED
:10394000E0950B2EBA2FA02D0B01B90190010C01AF
:10395000CA01A0011124FF27591B99F0593F50F4C7
:10396000503E68F11A16F040A22F232F342F44271F
:10397000585FF3CF469537952795A795F040539517
:10398000C9F77EF41F16BA0B620B730B840BBAF0E7
:103990009150A1F0FF0FBB1F661F771F881FC2F752
:1039A0000EC0BA0F621F731F841F48F48795779566
:1039B0006795B795F7959E3F08F0B3CF9395880F1D
:1039C00008F09927EE0F9795879508950CD0BAC007
:1039D000B2D040F0A9D030F021F45F3F19F09BC085
:1039E0005111E4C09EC0BFD098F39923C9F3552369
:1039F000B1F3951B550BBB27AA27621773078407E2
:103A000038F09F5F5F4F220F331F441FAA1FA9F397
:103A100033D00E2E3AF0E0E830D091505040E69589
:103A2000001CCAF729D0FE2F27D0660F771F881FEA
:103A3000BB1F261737074807AB07B0E809F0BB0BD9
:103A4000802DBF01FF2793585F4F2AF09E3F5105FD
:103A500068F061C0ABC05F3FECF3983EDCF3869545
:103A600077956795B795F7959F5FC9F7880F911D73
:103A70009695879597F90895E1E0660F771F881F5F
:103A8000BB1F621773078407BA0720F0621B730B12
:103A9000840BBA0BEE1F88F7E0950895E89409C0EF
:103AA00097FB3EF490958095709561957F4F8F4F71
:103AB0009F4F9923A9F0F92F96E9BB279395F69587
:103AC000879577956795B795F111F8CFFAF4BB0F05
:103AD00011F460FF1BC06F5F7F4F8F4F9F4F16C069
:103AE000882311F096E911C0772321F09EE8872FF3
:103AF000762F05C0662371F096E8862F70E060E0AF
:103B00002AF09A95660F771F881FDAF7880F969527
:103B1000879597F9089597F99F6780E870E060E0CE
:103B200008959FEF80EC089500240A941616170656
:103B300018060906089500240A941216130614069E
:103B400005060895092E0394000C11F4882352F001
:103B5000BB0F40F4BF2B11F460FF04C06F5F7F4FB9
:103B60008F4F9F4F089557FD9058440F551F59F0A0
:103B70005F3F71F04795880F97FB991F61F09F3F5A
:103B800079F087950895121613061406551FF2CF83
:103B90004695F1DF08C0161617061806991FF1CFD3
:103BA00086957105610508940895E894BB276627FA
:103BB0007727CB0197F9089566D008F48FEF089521
:103BC0000BD0C0CFB1DF28F0B6DF18F0952309F095
:103BD000A2CFA7CF1124EACFC6DFA0F3959FD1F3E0
:103BE000950F50E0551F629FF001729FBB27F00DAB
:103BF000B11D639FAA27F00DB11DAA1F649F662700
:103C0000B00DA11D661F829F2227B00DA11D621F4E
:103C1000739FB00DA11D621F839FA00D611D221F08
:103C2000749F3327A00D611D231F849F600D211DEC
:103C3000822F762F6A2F11249F5750408AF0E1F08F
:103C400088234AF0EE0FFF1FBB1F661F771F881FD8
:103C500091505040A9F79E3F510570F05CCFA6CF20
:103C60005F3FECF3983EDCF3869577956795B795C3
:103C7000F795E7959F5FC1F7FE2B880F911D9695ED
:103C8000879597F90895990F0008550FAA0BE0E85A
:103C9000FEEF16161706E807F907C0F0121613060E
:103CA000E407F50798F0621B730B840B950B39F44E
:103CB0000A2661F0232B242B252B21F408950A26B4
:103CC00009F4A140A6958FEF811D811D0895A1E201
:103CD0001A2EAA1BBB1BFD010DC0AA1FBB1FEE1F86
:103CE000FF1FA217B307E407F50720F0A21BB30BD1
:103CF000E40BF50B661F771F881F991F1A9469F74D
:103D000060957095809590959B01AC01BD01CF01A8
:103D10000895EE0FFF1F881F8BBF0790F691E02DCF
:103D200019940F931F93CF93DF938230910510F472
:103D300082E090E0E0916023F091612320E030E0A8
:103D4000A0E0B0E0309719F14081518102811381E8
:103D500048175907C8F08417950769F4109731F090
:103D600012960C93129713961C9327C0009360230E
:103D70001093612322C02115310519F04217530712
:103D800018F49A01BD01EF01DF01F801DBCF211525
:103D90003105F9F0281B390B2430310580F48A8174
:103DA0009B816115710521F0FB018283938304C01F
:103DB0008093602390936123FE01329644C0FE01FC
:103DC000E20FF31F819391932250310928833983A5
:103DD0003AC020915E2330915F23232B41F4209140
:103DE00002203091032020935E2330935F232091A3
:103DF0000020309101202115310541F42DB73EB747
:103E00004091042050910520241B350BE0915E2346
:103E1000F0915F23E217F307A0F42E1B3F0B281746
:103E2000390778F0AC014E5F5F4F2417350748F033
:103E30004E0F5F1F40935E2350935F2381939193B6
:103E400002C0E0E0F0E0CF01DF91CF911F910F9130
:103E50000895CF93DF93009709F481C0FC01329756
:103E600012821382A0916023B0916123109781F494
:103E700020813181820F931F20915E2330915F2337
:103E80002817390751F5E0935E23F0935F2367C04D
:103E9000ED0120E030E0CE17DF0740F44A815B817E
:103EA0009E0141155105F1F0EA01F5CFC283D3839C
:103EB00040815181840F951FC817D90759F4888113
:103EC0009981840F951F0296808391838A819B81BB
:103ED000828393832115310529F4E0936023F093C5
:103EE00061233DC0E901EA83FB8349915991C40FE5
:103EF000D51FEC17FD0761F480819181840F951F18
:103F00000296E90188839983828193818A839B83C6
:103F1000E0E0F0E012968D919C911397009719F0D4
:103F2000FD01DC01F7CF8D919C9111979D012E5FD2
:103F30003F4F820F931F20915E2330915F232817FC
:103F4000390769F4309729F41092602310926123A5
:103F500002C012821382A0935E23B0935F23DF918D
:103F6000CF910895FB01DC0102C001900D924150F8
:103F70005040D8F708950F931F93CF93DF93CDB799
:103F8000DEB72E97CDBFDEBF0E891F89888D998D34
:103F900026E02C8309831A8397FF02C080E090E813
:103FA00001978D839E83AE01445E5F4F6A8D7B8D4A
:103FB000CE01019616D04D815E8157FD0AC02F813A
:103FC0003885421753070CF49A01F801E20FF31FEA
:103FD00010822E96CDBFDEBFDF91CF911F910F9142
:103FE00008952F923F924F925F926F927F928F929D
:103FF0009F92AF92BF92CF92DF92EF92FF920F9378
:104000001F93CF93DF93CDB7DEB72B97CDBFDEBF26
:104010006C017B018A01FC0116821782838181FF7A
:10402000BFC1CE0101963C01F6019381F70193FDDA
:10403000859193FF81917F01882309F4ADC1853279
:1040400039F493FD859193FF81917F01853221F4AD
:10405000B60190E0D3D1E8CF912C212C312CFFE197
:10406000F315D8F08B3279F038F4803279F083325E
:10407000A1F4232D20611DC08D3261F0803369F4DD
:10408000232D216016C0832D8260382EE32DE4603D
:104090003E2E2AC0F32DF8601DC037FC2DC020ED48
:1040A000280F2A3040F08E32B9F436FC75C1232D2A
:1040B0002064322E19C036FE06C08AE0989E200D7C
:1040C0001124922E11C0EAE02E9E200D1124222EE2
:1040D000F32DF0623F2E08C08C3621F4832D8068CA
:1040E000382E02C0883641F4F70193FD859193FF85
:1040F00081917F018111B3CF982F9F7D955493308B
:1041000028F40C5F1F4F9FE399830DC0833631F075
:10411000833771F0833509F055C020C0F8018081E4
:1041200089830E5F1F4F88248394912C530112C002
:104130002801F2E04F0E511CF801A080B18036FE3C
:1041400003C0692D70E002C06FEF7FEFC5014BD156
:104150004C018201F32DFF773F2E15C0280122E08C
:10416000420E511CF801A080B18036FE03C0692DBB
:1041700070E002C06FEF7FEFC5012AD14C01F32D33
:10418000F0683F2E820133FC19C0822D90E0881622
:104190009906A0F4B60180E290E030D12A94F5CFE0
:1041A000F50137FC859137FE81915F01B60190E002
:1041B00025D121102A9421E0821A910881149104BA
:1041C00079F7E1C0843611F0893639F5F80137FE08
:1041D00007C060817181828193810C5F1F4F08C08D
:1041E00060817181072E000C880B990B0E5F1F4FA9
:1041F000F32DFF763F2E97FF09C09095809570951F
:1042000061957F4F8F4F9F4FF0683F2E2AE030E03F
:10421000A30130D1882E861844C0853731F4232D70
:104220002F7EB22E2AE030E025C0932D997FB92E43
:104230008F36C1F018F4883579F0AEC0803719F0A8
:10424000883721F0A9C0E92FE061BE2EB4FE0DC071
:10425000FB2DF460BF2E09C034FE0AC0292F266052
:10426000B22E06C028E030E005C020E130E002C0F8
:1042700020E132E0F801B7FE07C0608171818281E0
:1042800093810C5F1F4F06C06081718180E090E0D8
:104290000E5F1F4FA301EED0882E8618FB2DFF77EF
:1042A0003F2E36FE0DC0232D2E7FA22E891458F4EA
:1042B00034FE0BC032FC09C0832D8E7EA82E05C0B3
:1042C000B82CA32C03C0B82C01C0B92CA4FE0FC07D
:1042D000FE01E80DF11D8081803321F49A2D997E35
:1042E000A92E09C0A2FE06C0B394B39404C08A2DBF
:1042F000867809F0B394A3FC10C0A0FE06C0B214E7
:1043000080F4280C922C9B180DC0B21458F4B601FE
:1043100080E290E073D0B394F8CFB21418F42B1865
:1043200002C0982C212CA4FE0FC0B60180E390E0BF
:1043300065D0A2FE16C0A1FC03C088E790E002C0D1
:1043400088E590E0B6010CC08A2D867851F0A1FE78
:1043500002C08BE201C080E2A7FC8DE2B60190E0D2
:104360004DD0891430F4B60180E390E047D09A94A0
:10437000F8CF8A94F301E80DF11D8081B60190E039
:104380003DD08110F6CF222009F44ECEB60180E256
:1043900090E034D02A94F7CFF6018681978102C04D
:1043A0008FEF9FEF2B96CDBFDEBFDF91CF911F9197
:1043B0000F91FF90EF90DF90CF90BF90AF909F90C4
:1043C0008F907F906F905F904F903F902F900895C7
:1043D000FC010590615070400110D8F780959095D0
:1043E0008E0F9F1F0895FC016150704001900110D5
:1043F000D8F7809590958E0F9F1F08950F931F9368
:10440000CF93DF93FB01238121FD03C08FEF9FEF4B
:104410002CC022FF16C04681578124813581421766
:10442000530744F4A081B1819D012F5F3F4F20834A
:1044300031838C93268137812F5F3F4F26833783CB
:1044400014C08B01EC01FB010084F185E02D19956E
:10445000892BE1F6D80116968D919C9117970196BC
:1044600016968D939C931797CE01DF91CF911F9154
:104470000F910895FA01AA27283051F1203181F1D6
:10448000E8946F936E7F6E5F7F4F8F4F9F4FAF4F5C
:10449000B1E03ED0B4E03CD0670F781F891F9A1F6F
:1044A000A11D680F791F8A1F911DA11D6A0F711D23
:1044B000811D911DA11D20D009F468943F912AE02F
:1044C000269F11243019305D3193DEF6CF01089517
:1044D000462F4770405D4193B3E00FD0C9F7F6CF48
:1044E000462F4F70405D4A3318F0495D31FD405210
:1044F000419302D0A9F7EACFB4E0A69597958795A6
:1045000077956795BA95C9F7009761057105089584
:104510009B01AC010A2E0694579547953795279530
:10452000BA95C9F7620F731F841F951FA01D0895C8
:04453000F894FFCF2D
:104534000000622320000010020607207D80250071
:104544000003000049444C4500546D7220537663C7
:104554000043757272656E743A20252E32662041CE
:104564000D0A00456D62656464657200626177617D
:0A45740068200061746173200000EC
:00000001FF
