:1000000050C200006FC200006DC200006BC2000051
:1000100069C2000067C2000065C2000063C2000040
:1000200061C200005FC200005DC200005BC2000050
:1000300059C200000C94EE0B0C944F1253C20000F6
:1000400051C200004FC200004DC200004BC2000070
:1000500049C2000047C2000045C2000043C2000080
:1000600041C200003FC200003DC200003BC2000090
:1000700039C2000037C2000035C2000033C20000A0
:1000800031C200002FC200002DC200002BC20000B0
:1000900029C2000027C2000025C200000C945009AC
:1000A0000C9482090C94B4090C94E6091BC200005C
:1000B00019C2000017C200000C94150C13C20000F6
:1000C00011C200000FC200000DC200000BC20000F0
:1000D00009C2000007C2000005C2000003C2000000
:1000E00001C20000FFC10000FDC10000FBC1000013
:1000F000F9C10000F7C10000F5C10000F3C1000024
:10010000F1C10000EFC10000EDC10000EBC1000033
:10011000E9C10000E7C10000E5C10000F9C7000027
:100120000C94BA080C94EC080C941E09DBC1000076
:10013000D9C10000D7C10000D5C10000D3C1000063
:10014000D1C10000CFC10000CDC10000CBC1000073
:10015000C9C10000C7C10000C5C10000C3C1000083
:10016000C1C10000BFC10000BDC10000BBC1000093
:10017000B9C10000B7C10000B5C10000B3C10000A3
:10018000B1C10000AFC10000ADC10000ABC10000B3
:10019000A9C10000A7C10000A5C10000A3C10000C3
:1001A000A1C100009FC100009DC100009BC10000D3
:1001B00099C1000097C1000095C1000093C10000E3
:1001C00091C100008FC100008DC100008BC10000F3
:1001D00089C1000087C1000085C1000083C1000003
:1001E00081C100007FC100007DC100007BC1000013
:1001F00079C1000077C1000075C10000E21AE21A5F
:10020000E21A0F1B171B251BE21AE21A0F1B171B02
:10021000000000000000002020202020002050507E
:1002200050000000005050F850F850502078A07056
:1002300028F020C0C810204098186090A040A890D6
:100240006860204000000000102040404020104026
:10025000201010102040005020F8205000002020D6
:10026000F820200000000000602040000000F8009E
:1002700000000000000000606000081020408000C6
:10028000708898A8C888702060202020207070880E
:1002900008102040F8F81020100888701030509096
:1002A000F81010F880F008088870304080F08888D6
:1002B00070F80810204040407088887088887070FE
:1002C00088887808106000606000606000006060EE
:1002D00000602040081020402010080000F800F8BE
:1002E00000008040201020408070880810200020EE
:1002F00070880868A8A87070888888F88888F0884E
:1003000088F08888F070888080808870E090888885
:100310008890E0F88080F08080F8F88080E080802D
:100320008070888080988870888888F8888888702D
:10033000202020202070381010101090608890A08D
:10034000C0A09088808080808080F888D8A8888825
:1003500088888888C8A898888870888888888870DD
:10036000F08888F080808070888888A89068F088FD
:1003700088F0A09088788080700808F0F82020200D
:100380002020208888888888887088888888885075
:1003900020888888A8A8D88888885020508888888D
:1003A000885020202020F80810204080F838202095
:1003B0002020203800804020100800E0202020204D
:1003C00020E020508800000000000000000000F83D
:1003D00040201000000000000070087888788080BD
:1003E000B0C88888F000007080808870080868981D
:1003F00088887800007088F88070304840E040407D
:1004000040000078887808308080B0C888888820CC
:100410000060202020701000301010906040404894
:1004200050605048602020202020700000D0A8A8F4
:1004300088880000B0C88888880000708888887024
:100440000000F088F08080000068987808080000BC
:10045000B0C8808080000070807008F04040E040AC
:100460004048300000888888986800008888885054
:100470002000008888A8A8500000885020508800DC
:100480000088887808700000F8102040F8102020BC
:10049000402020102020202020202040202010203C
:1004A000204011241FBECFEFCDBFDFE5DEBF00E04F
:1004B0000CBF10E2A0E0B0E2E8ECF6E400E00BBF15
:1004C00002C007900D92A235B107D9F724E2A2E548
:1004D000B0E201C01D92A533B207E1F70E94581C9B
:1004E0000C9462238DCD04C061507109810991097A
:1004F0006115710581059105B9F70895BF92CF92F5
:10050000DF92EF92FF920F931F93CF93DF931F928F
:10051000CDB7DEB700E016E06894FF24F3F8F801E9
:10052000F68264E070E080E090E0DDDFF801F582C3
:1005300064E070E080E090E0D6DF0F2EFBE2BF2E9B
:10054000F02DB98280EA99E043D4C12CD12C7601F8
:1005500000E412E42FE030E043E0BE016F5F7F4F24
:1005600080EA99E064D400E616E0FF24F394F801F1
:10057000F682B982BE016F5F7F4F80EA99E071D445
:10058000F801F682E0EAF9E0818185FFFDCF80EA9B
:100590008093A009E0EAF9E0818186FFFDCFE0EADF
:1005A000F9E080E481838081BE016F5F7F4F80EA44
:1005B00099E06DD48BE28983BE016F5F7F4F80EA43
:1005C00099E04FD481E080936606E0EAF9E081810A
:1005D00085FFFDCF86EA8093A009E0EAF9E08181FA
:1005E00086FFFDCFE0EAF9E080E481838081BE01EF
:1005F0006F5F7F4F80EA99E04AD48BE28983BE0126
:100600006F5F7F4F80EA99E02CD481E0809366068B
:10061000E0EAF9E0818185FFFDCF88EC8093A009B5
:10062000E0EAF9E0818186FFFDCFE0EAF9E080E4CD
:1006300081838081BE016F5F7F4F80EA99E027D47C
:100640008BE28983BE016F5F7F4F80EA99E009D416
:1006500081E080936606E0EAF9E0818185FFFDCFC5
:1006600082EA8093A009E0EAF9E0818186FFFDCF6C
:10067000E0EAF9E080E481838081BE016F5F7F4F13
:1006800080EA99E004D48BE28983BE016F5F7F4FDB
:1006900080EA99E0E6D381E080936606E0EAF9E03B
:1006A000818185FFFDCF8FE28093A009E0EAF9E028
:1006B000818186FFFDCFE0EAF9E080E481838081DB
:1006C000BE016F5F7F4F80EA99E0E1D38BE28983BF
:1006D000BE016F5F7F4F80EA99E0C3D381E08093D2
:1006E0006606E0EAF9E0818185FFFDCF88EF80931F
:1006F000A009E0EAF9E0818186FFFDCFE0EAF9E0B8
:1007000080E481838081BE016F5F7F4F80EA99E042
:10071000BED38BE28983BE016F5F7F4F80EA99E091
:10072000A0D381E080936606E0EAF9E0818185FF4D
:10073000FDCF1092A009E0EAF9E0818186FFFDCFAC
:10074000E0EAF9E080E481838081BE016F5F7F4F42
:1007500080EA99E09CD38BE28983BE016F5F7F4F73
:1007600080EA99E07ED381E080936606E0EAF9E0D2
:10077000818185FFFDCF81E28093A009E0EAF9E065
:10078000818186FFFDCFE0EAF9E080E4818380810A
:10079000BE016F5F7F4F80EA99E079D38BE2898356
:1007A000BE016F5F7F4F80EA99E05BD381E0809369
:1007B0006606E0EAF9E0818185FFFDCF81E880935C
:1007C000A009E0EAF9E0818186FFFDCFE0EAF9E0E7
:1007D00080E481838081BE016F5F7F4F80EA99E072
:1007E00056D38BE28983BE016F5F7F4F80EA99E029
:1007F00038D381E080936606E0EAF9E0818185FFE5
:10080000FDCF81E28093A009E0EAF9E0818186FFD3
:10081000FDCFE0EAF9E080E481838081BE016F5F73
:100820007F4F80EA99E033D38BE28983BE016F5F0B
:100830007F4F80EA99E015D381E080936606E0EA75
:10084000F9E0818185FFFDCF8FEA8093A009E0EA7E
:10085000F9E0818186FFFDCFE0EAF9E080E4818361
:100860008081BE016F5F7F4F80EA99E010D30F90C7
:10087000DF91CF911F910F91FF90EF90DF90CF907C
:10088000BF9008958FEF80937000809371008093E4
:10089000720080937300809374008093750080933E
:1008A00076000895CF93DF931F92CDB7DEB79FB741
:1008B0009983F8949981E82FF0E0E059FF4F609513
:1008C0008081682360839FBF0F90DF91CF9108954F
:1008D000CF93DF931F92CDB7DEB79FB79983F8947C
:1008E0009981E82FF0E0E059FF4F8081682B608309
:1008F0009FBF0F90DF91CF910895FF920F931F93A9
:10090000CF93DF931F92CDB7DEB7082FF62E142FAB
:100910001AD10F70006B8BE28983BE016F5F7F4F2E
:1009200080EA99E09ED281E080936606E0EAF9E0F1
:10093000918195FFFDCF0093A009E0EAF9E0818164
:1009400086FFFDCFE0EAF9E080E481838081BE018B
:100950006F5F7F4F80EA99E09AD20F2D0F77029553
:100960000F7000618BE28983BE016F5F7F4F80EA69
:1009700099E077D281E080936606E0EAF9E0818130
:1009800085FFFDCF0093A009E0EAF9E0818186FFB1
:10099000FDCFE0EAF9E080E481838081BE016F5FF2
:1009A0007F4F80EA99E073D20F2D0F708BE289831D
:1009B000BE016F5F7F4F80EA99E053D281E0809360
:1009C0006606E0EAF9E0818185FFFDCF0093A0098A
:1009D000E0EAF9E0818186FFFDCFE0EAF9E080E41A
:1009E00081838081BE016F5F7F4F80EA99E04FD2A3
:1009F0008BE28983BE016F5F7F4F80EA99E031D23D
:100A000081E080936506E0EAF9E0818185FFFDCF12
:100A10001093A009E0EAF9E0818186FFFDCFE0EACA
:100A2000F9E080E48183808181E080936606BE01E5
:100A30006F5F7F4F80EA99E02AD20F90DF91CF91CC
:100A40001F910F91FF9008950F931F93CF93DF9302
:100A50001F92CDB7DEB782E590E270D04FDD8BE21A
:100A60008983BE016F5F7F4F80EA99E0FAD181E010
:100A700080936606E0EAF9E0818185FFFDCF80E49E
:100A80008093A009E0EAF9E0818186FFFDCFE0EAEA
:100A9000F9E080E481838081BE016F5F7F4F80EA4F
:100AA00099E0F5D100E00AC040E0612F802F25DFFA
:100AB0001F5F1038C9F70F5F043011F010E0F4CF5A
:100AC0000F90DF91CF911F910F910895FF920F9397
:100AD0001F93CF93DF9388234CF1603238F5D42FE6
:100AE000C82FF62EF694F694F69470E088E0F89EFF
:100AF00060197109112481E090E08C0102C0000F9F
:100B0000111F6A95E2F76C2F8F2D2BD0D13021F079
:100B100028F0D23031F006C0802B04C0009580232D
:100B200001C08027482F6C2F8F2DE7DEDF91CF91FA
:100B30001F910F91FF90089514C008958093522241
:100B4000909353220895209152223091532290E89D
:100B5000899F200D311D1124F901E60FF11D4083FD
:100B60000895209152223091532290E8899F200DC0
:100B7000311D1124F901E60FF11D80810895FF92C6
:100B80000F931F93CF93DF93E42FF0E0E80FF11D55
:100B9000E138F1051CF0C0E84C2F481B442309F450
:100BA0004AC0D62FD695D695D69570E098E0D99FB5
:100BB000601971091124E1E0F0E0DF0102C0AA0F21
:100BC000BB1F6A95E2F7FA2E213021F098F022300F
:100BD00019F131C0C42F1FEF180F012F0C0F602F18
:100BE0008D2FAADF4F2D482B602F8D2F86DEC15011
:100BF000A1F721C0C42F1FEF180FFA2EF094012F78
:100C00000C0F602F8D2F98DF4F2D4823602F8D2FD5
:100C100074DEC150A1F70FC0C42F1FEF180F012FB2
:100C20000C0F602F8D2F88DF4F2D4827602F8D2FC1
:100C300064DEC150A1F7DF91CF911F910F91FF901A
:100C40000895FF920F931F93CF93DF93222369F0B0
:100C5000F42E182FC22FDFEFD60F6D2F6C0F202F21
:100C60004F2D812F8CDFC150C1F7DF91CF911F91A4
:100C70000F91FF900895AF92BF92CF92DF92EF92C3
:100C8000FF920F931F93CF93DF93C82FE62EB42EBE
:100C9000690100E0F901248143816B2D8E2DD1DFA4
:100CA000F6018081811139C08381282F26952695F0
:100CB0002695877009F02F5FF601A4808C2F90E0B5
:100CC0003581831B91092A9D90011124829FA001E7
:100CD000839F500D929F500D112401811281040FAA
:100CE000151FF601F380FF20A1F0D0E0C0E08E2DAB
:100CF0008C0F9C2F977021F4F801D4910F5F1F4F38
:100D0000DD231CF441E06B2DE1DEDD0FCF5FFC1233
:100D1000EECFB394AA94A110E4CFDF91CF911F91AD
:100D20000F91FF90EF90DF90CF90BF90AF9008951C
:100D3000DF92EF92FF920F931F93CF93DF93D62E04
:100D4000042F7901EC01162F89918A3031F4F701D3
:100D500084818F5F080F1D2D09C08D3039F09701F8
:100D6000402F612F88DFF7018381180F888181115F
:100D7000EBCFDF91CF911F910F91FF90EF90DF901C
:100D80000895CF93DF93FC0120E030E0C62FD0E040
:100D9000DE01022E02C0B595A7950A94E2F7A0FDE8
:100DA000508B2F5F3F4F31962830310589F740FF38
:100DB0000AC041FF03C0FC01658302C0FC016683D9
:100DC000FC01618302C0FC016283DF91CF91089531
:100DD000803A28E0920721F460E183E063CD089532
:100DE000803B28E0920721F460E283E05BCD089528
:100DF000803A29E0920721F460E184E053CD089520
:100E0000803B29E0920721F460E284E04BCD089515
:100E1000803A2AE0920721F460E185E043CD08950D
:100E2000803A9B4019F460E186E03CCD08950F9331
:100E30001F93CF93DF9300D000D0CDB7DEB70983E7
:100E40001A832B833C834D831E82BE016F5F7F4FCD
:100E500086D72696CDBFDEBFDF91CF911F910F9130
:100E60000895FB018081E82FE695E695E69540E23E
:100E7000E49FF0011124FA5F877021E030E0A901BE
:100E800002C0440F551F8A95E2F746830895FB017F
:100E90008081E82FE695E695E69540E2E49FF00133
:100EA0001124FA5F877021E030E0A90102C0440FED
:100EB000551F8A95E2F74583089543E050E061E0CD
:100EC00080EE97E05EDF43E050E062E080EE97E086
:100ED00058DF43E050E060E180E696E052DF41E019
:100EE00050E460E280E696E04CDF40E05BE160E2E7
:100EF00080E896E046DF40E05BE162E080EA96E071
:100F000040DF40E05BE164E080EA96E03ADF43E006
:100F100050E062E080E696E034DF43E050E068E0D5
:100F200080E696E02EDF43E050E068E080EA96E05D
:100F300028DF43E050E061E080E696E022DF43E016
:100F400050E068E080E096E01CDF41E050E060E1C6
:100F500080E896E016DF43E050E062E080E696E04D
:100F600010DF43E050E068E080E696E00ADF40E012
:100F700050E064E080E696E004DF43E050E060E1AA
:100F800080EA96E0FEDE40E050E061E080E096E03E
:100F9000F8DE40E050E064E080E096E0F2DE40E021
:100FA00050E062E080E296E0ECDE43E050E068E092
:100FB00080E496E0E6DE40E050E064E080E496E025
:100FC000E0DE43E050E068E080E696E0DADE40E014
:100FD00050E064E080E696E0D4DE43E050E068E074
:100FE00080E896E0CEDE40E050E064E080E896E005
:100FF000C8CE0895811522E0920761F480915522B0
:1010000091E0980F90935522811112C062E081E027
:1010100049CC08958034924059F48091542291E053
:10102000980F90935422811103C062E082E03ACC81
:101030000895811522E0920759F48091552281503C
:1010400080935522811111C062E081E041CC089566
:101050008034924051F480915422815080935422E4
:10106000811103C062E082E033CC0895EF92FF92D9
:101070001F93CF93DF931F921F92CDB7DEB77C01F2
:101080008FB78983F8941981C701B4DFF701808194
:10109000816080831FBF809128248F3F09F4FFCF98
:1010A0008FB78A83F8949A81E7E2F4E281818F5FB7
:1010B00081839FBF0F900F90DF91CF911F91FF9081
:1010C000EF9008951F93CF93DF931F921F92CDB798
:1010D000DEB72FB72983F8941981FC0120812E7F78
:1010E0002083A7DF1FBF80912824811101C0FFCF7B
:1010F0008FB78A83F8949A81E7E2F4E28181815084
:1011000081839FBF0F900F90DF91CF911F91089522
:101110001F920F920FB60F9211240BB60F922F93BE
:101120003F934F935F936F937F938F939F93AF936F
:10113000BF93EF93FF934091240250912502E091D9
:101140002F24F091302461E080E092E01995FF9126
:10115000EF91BF91AF919F918F917F916F915F912F
:101160004F913F912F910F900BBE0F900FBE0F909C
:101170001F9018951F920F920FB60F9211240BB665
:101180000F922F933F934F935F936F937F938F9320
:101190009F93AF93BF93EF93FF9340912C02509195
:1011A0002D02E0912F24F091302462E080E092E063
:1011B0001995FF91EF91BF91AF919F918F917F9181
:1011C0006F915F914F913F912F910F900BBE0F90B8
:1011D0000FBE0F901F9018951F920F920FB60F928F
:1011E00011240BB60F922F933F934F935F936F93FE
:1011F0007F938F939F93AF93BF93EF93FF93409110
:10120000340250913502E0912F24F091302464E0B3
:1012100080E092E01995FF91EF91BF91AF919F917E
:101220008F917F916F915F914F913F912F910F908F
:101230000BBE0F900FBE0F901F9018951F920F922C
:101240000FB60F9211240BB60F922F933F934F932B
:101250005F936F937F938F939F93AF93BF93EF931E
:10126000FF9340913C0250913D02E0912F24F09178
:10127000302468E080E092E01995FF91EF91BF91F2
:10128000AF919F918F917F916F915F914F913F911E
:101290002F910F900BBE0F900FBE0F901F901895BF
:1012A0001F920F920FB60F9211240BB60F922F932D
:1012B0003F934F935F936F937F938F939F93AF93DE
:1012C000BF93EF93FF934091640250916502E091C8
:1012D0002D24F0912E2461E080E492E01995FF9195
:1012E000EF91BF91AF919F918F917F916F915F919E
:1012F0004F913F912F910F900BBE0F900FBE0F900B
:101300001F9018951F920F920FB60F9211240BB6D3
:101310000F922F933F934F935F936F937F938F938E
:101320009F93AF93BF93EF93FF9340916C025091C3
:101330006D02E0912D24F0912E2462E080E492E091
:101340001995FF91EF91BF91AF919F918F917F91EF
:101350006F915F914F913F912F910F900BBE0F9026
:101360000FBE0F901F9018951F920F920FB60F92FD
:1013700011240BB60F922F933F934F935F936F936C
:101380007F938F939F93AF93BF93EF93FF9340917E
:10139000740250917502E0912D24F0912E2464E0A6
:1013A00080E492E01995FF91EF91BF91AF919F91E9
:1013B0008F917F916F915F914F913F912F910F90FE
:1013C0000BBE0F900FBE0F901F9018951F920F929B
:1013D0000FB60F9211240BB60F922F933F934F939A
:1013E0005F936F937F938F939F93AF93BF93EF938D
:1013F000FF9340917C0250917D02E0912D24F09169
:101400002E2468E080E492E01995FF91EF91BF915E
:10141000AF919F918F917F916F915F914F913F918C
:101420002F910F900BBE0F900FBE0F901F9018952D
:10143000BF92CF92DF92EF92FF920F931F93CF93C1
:10144000DF931F92CDB7DEB78C017B01811522E0BF
:10145000920771F461E270E082E01FD1C82ED12CB6
:1014600060E270E082E019D1DC2CCC24C82A10C0E4
:1014700080349240C1F565E270E082E00ED1C82E62
:10148000D12C64E270E082E008D1DC2CCC24C82AA4
:101490008FB78983F894B980C801ACDDF8018081E9
:1014A00092E09083C486D586F70125813681F801C4
:1014B000208F318FF7019281F8019283F701948197
:1014C000F8019483F7019381F8019383F7019181E7
:1014D000F80191838170F7019081892BF801808355
:1014E000C801A7DDBFBE0F90DF91CF911F910F9173
:1014F000FF90EF90DF90CF90BF900895DF92EF9232
:10150000FF920F931F93CF93DF931F92CDB7DEB758
:101510008C017B018FB78983F894D980C8016ADD7B
:10152000F8018081807CF7018083F801808D918DA6
:10153000F70185839683F8018281F7018283F801A0
:101540008481F7018483F8018381F7018383F801A3
:101550008181F7018183C8016CDDDFBE0F90DF91CF
:10156000CF911F910F91FF90EF90DF900895AF9270
:10157000BF92CF92DF92EF92FF920F931F93CF9380
:10158000DF931F92CDB7DEB76C01B62E7A01862F9E
:10159000837029F4962F9695969582E002C0962F37
:1015A00080E090FF8F5F8601005E1F4F98E0899F6B
:1015B000000D111D11248FB78983F894A980C601ED
:1015C00019DDF7018081F8018083F7018281F8013C
:1015D0008283F7018181F8018183B0FE04C0F701A5
:1015E0008381F8018683C60124DDAFBE0F90DF91B1
:1015F000CF911F910F91FF90EF90DF90CF90BF9010
:10160000AF900895AF92BF92CF92DF92EF92FF9288
:101610000F931F93CF93DF931F92CDB7DEB76C016B
:10162000B62E7A01862F837029F4962F969596957B
:1016300082E002C0962F80E090FF8F5F8601005EFF
:101640001F4F98E0899F000D111D11248FB78983CA
:10165000F894A980C601CEDCF8018081F70180836F
:10166000F8018281F7018283F8018181F70181838A
:10167000B0FE04C0F8018681F7018383C601D9DC7E
:10168000AFBE0F90DF91CF911F910F91FF90EF9020
:10169000DF90CF90BF90AF9008954091CA01E62FA0
:1016A000F72F8093CA0184914093CA010895CF9384
:1016B000DF93E0915622F0915722848183FF08C086
:1016C0008860848383E0838386EF8093602283C075
:1016D000982F947131F083E083838FEF80936022A1
:1016E0007AC086FF43C0C6E5D2E2AA81BB818C8165
:1016F0009D8114962D913C911597821793076CF458
:101700009C012F5F3F4F20935A2230935B22A80FFA
:10171000B91F11968C9187835EC080915C22909155
:101720005D2218962D913C91199782179307C8F462
:1017300020915E22222321F08681816086834BC026
:1017400016962D913C911797AC014F5F5F4F4093D8
:101750005C2250935D22D901A80FB91F8C91878319
:101760003AC083E083831092602235C0882384F5D9
:10177000A6E5B2E21296CD91DC91139716968D9163
:101780009C9117972885398582179307D8F46E8125
:101790007F819C012F5F3F4F20935C2230935D221D
:1017A0004781DB01A80FB91F4C93888599852817BD
:1017B000390718F482E083830EC087E08383109298
:1017C000602209C083E0838389EF8093602203C095
:1017D0008BEF80936022DF91CF9108951F920F923B
:1017E0000FB60F9211240BB60F922F933F934F9386
:1017F0005F936F937F938F939F93AF93BF93EF9379
:10180000FF9355DFFF91EF91BF91AF919F918F9122
:101810007F916F915F914F913F912F910F900BBEF0
:101820000F900FBE0F901F9018951F920F920FB63A
:101830000F9211240BB60F922F933F934F935F9308
:101840006F937F938F939F93AF93BF93EF93FF9388
:101850002EDFFF91EF91BF91AF919F918F917F917B
:101860006F915F914F913F912F910F900BBE0F9011
:101870000FBE0F901F9018954F925F926F927F92BC
:101880008F929F92AF92BF92EF92FF920F931F930E
:10189000CF937C014A015B0128013901FC0184815D
:1018A00082FF16C0D901C801689412F8B695A795B1
:1018B000979587951694D1F7B901A801032E36E1C3
:1018C00076956795579547953A95D1F7302D15C080
:1018D000D901C801689413F8B695A795979587958F
:1018E0001694D1F7B901A801032E37E176956795D3
:1018F000579547953A95D1F7302D88159905AA0542
:10190000BB0508F4A6C084169506A606B70608F41B
:10191000A2C0F701848182FD04C0880C991CAA1C16
:10192000BB1CC301B201A50194010E941D1F2F3FE2
:1019300031054105510508F490C08FEF90E0A0E01B
:10194000B0E0C9EF05C0281739074A075B0758F010
:10195000880F991FAA1FBB1FCD3F0CF48160CF5F7A
:10196000C73089F74FC0CC230CF04CC0D501C4015F
:10197000880F991FAA1FBB1F880F991FAA1FBB1F83
:10198000880F991FAA1FBB1F481A590A6A0A7B0AA7
:10199000CE3FF4F48DEF9FEF8C1B9109C7FD93951B
:1019A00004C0440C551C661C771C8A95D2F7D501DF
:1019B000C401B695A79597958795BC01CD01640D97
:1019C000751D861D971DA50194010E941D1F37C01E
:1019D00083E08C0FA501940104C0220F331F441F24
:1019E000551F8A95D2F7DA01C901B695A795979543
:1019F0008795BC01CD01640D751D861D971D0E9444
:101A00001D1F1DC083E08C0FA501940104C0220F8F
:101A1000331F441F551F8A95D2F7DA01C901B695C5
:101A2000A79597958795BC01CD01640D751D861D01
:101A3000971D0E941D1F2150310941095109832F13
:101A40008F70C295C07FC82BF701C783268381E0C2
:101A500018C080E016C080E014C0D501C401880F12
:101A6000991FAA1FBB1F880F991FAA1FBB1F880F92
:101A7000991FAA1FBB1F481A590A6A0A7B0AC9EF95
:101A800089CFCF911F910F91FF90EF90BF90AF90B2
:101A90009F908F907F906F905F904F9008950F93DD
:101AA0001F93CF93DF93EC018B01009709F403C1DF
:101AB000803C910529F460E180E00E945204FBC063
:101AC000C03881E0D80729F462E080E00E94520427
:101AD000F2C0C115E1E0DE0729F461E080E00E9478
:101AE0005204E9C0C038F3E0DF0729F461E081E087
:101AF0000E945204E0C0C03983E0D80729F461E0B5
:101B000082E00E945204D7C0C115E2E0DE0729F44A
:101B100062E081E00E945204CEC0C034F2E0DF07F0
:101B200029F462E082E00E945204C5C0C03283E022
:101B3000D80729F464E082E00E945204BCC0C115B9
:101B4000E8E0DE0729F461E083E00E945204B3C0BC
:101B5000C115F9E0DF0729F461E084E00E94520436
:101B6000AAC0C1158AE0D80729F461E085E00E9487
:101B70005204A1C0C115EBE0DE0729F461E086E064
:101B80000E94520498C0C034F8E0DF0729F462E0F4
:101B900083E00E9452048FC0C03489E0D80729F442
:101BA00062E084E00E94520486C0C034EAE0DE07AE
:101BB00029F462E085E00E9452047DC0C039F8E05B
:101BC000DF0729F464E083E00E94520474C0C03946
:101BD00089E0D80729F464E084E00E9452046BC0D5
:101BE000C039EAE0DE0729F464E085E00E9452048F
:101BF00062C0C039FBE0DF0729F464E086E00E94A0
:101C0000520459C0C03C88E0D80729F468E083E05A
:101C10000E94520450C0C03CE9E0DE0729F468E0AD
:101C200084E00E94520447C0C03AF8E0DF0729F47C
:101C300060E183E00E9452043EC0C03A89E0D807C8
:101C400029F460E184E00E94520435C0C03AEAE021
:101C5000DE0729F460E185E00E9452042CC0C03AFE
:101C6000FBE0DF0729F460E186E00E94520423C014
:101C7000C03B88E0D80729F460E283E00E94520468
:101C80001AC0C03BE9E0DE0729F460E284E00E946C
:101C9000520411C0C038F4E0DF0729F460E483E0A7
:101CA0000E94520408C0C03A84E0D80721F460E4DE
:101CB00085E00E9452048D818F738D83F801958198
:101CC0008481892B9681911198E0892B8D83F8016D
:101CD000408151816281738100E814E82EE130E097
:101CE000CE01CADD9C8198609C839C8190619C831D
:101CF000DF91CF911F910F910895CF92DF92EF92D4
:101D0000FF920F931F93CF93DF93EC01D901C8018A
:101D1000B695A79597958795481759076A077B0742
:101D200078F46A017B01CC0CDD1CEE1CFF1CC901A0
:101D3000B801A70196010E941D1F2150310902C060
:101D400020E030E0832F8F708F832E83DF91CF913F
:101D50001F910F91FF90EF90DF90CF900895DF9249
:101D6000EF92FF920F931F93CF93DF931F92CDB704
:101D7000DEB77C018B01009709F4CFC1803C91054F
:101D800029F460E180E00E945204C7C180E8E816AF
:101D900081E0F80629F462E080E00E945204BDC1AF
:101DA000E114E1E0FE0629F461E080E00E945204C3
:101DB000B4C1F0E8EF16F3E0FF0629F461E081E03A
:101DC0000E945204AAC130E9E31633E0F30629F475
:101DD00061E082E00E945204A0C1E11482E0F806B2
:101DE00029F462E081E00E94520497C1E0E4EE161B
:101DF000E2E0FE0629F462E082E00E9452048DC116
:101E0000F0E2EF16F3E0FF0629F464E082E00E94BE
:101E1000520483C1E11438E0F30629F461E083E061
:101E20000E9452047AC1E11489E0F80629F461E0C5
:101E300084E00E94520471C1E114EAE0FE0629F434
:101E400061E085E00E94520468C1E114FBE0FF06F6
:101E500029F461E086E00E9452045FC130E4E31699
:101E600038E0F30629F462E083E00E94520455C191
:101E700080E4E81689E0F80629F462E084E00E9434
:101E800052044BC1E0E4EE16EAE0FE0629F462E0FB
:101E900085E00E94520441C1F0E9EF16F8E0FF0628
:101EA00029F464E083E00E94520437C130E9E3166C
:101EB00039E0F30629F464E084E00E9452042DC165
:101EC00080E9E8168AE0F80629F464E085E00E94DB
:101ED000520423C1E0E9EE16EBE0FE0629F464E0CB
:101EE00086E00E94520419C1F0ECEF16F8E0FF06FC
:101EF00029F468E083E00E9452040FC130ECE3163D
:101F000039E0F30629F468E084E00E94520405C138
:101F100080EAE81688E0F80669F460E183E00E9450
:101F20005204E0EAF8E084818F7E8483F801248102
:101F3000225053C0F0EAEF16F9E0FF0629F460E101
:101F400084E00E945204E9C030EAE3163AE0F30666
:101F500029F460E185E00E945204DFC080EAE816BF
:101F60008BE0F80629F460E186E00E945204D5C0B7
:101F7000E0EBEE16E8E0FE0629F460E283E00E9462
:101F80005204CBC0F0EBEF16F9E0FF0629F460E253
:101F900084E00E945204C1C030E8E31634E0F30646
:101FA00029F460E483E00E945204B7C080EAE81696
:101FB00084E0F80629F460E485E00E945204ADC094
:101FC000F70184818F7E8483FB0124812250C70125
:101FD000F0EAEF16F8E0FF0649F480914E0684FD22
:101FE000A5C00F2EF1E1DF2EF02DA4C0803B38E01C
:101FF000930791F0803AE9E09E0749F430916E062C
:1020000034FD9BC00F2EF9E1DF2EF02D16C0803B72
:10201000F9E09F07F1F004C00F2EF5E1DF2EF02D5F
:10202000803A3AE0930749F480918E0684FD8AC095
:102030000F2EF1E2DF2EF02D15C0803A9B4091F477
:102040008091AE0684FD0AC00F2EF9E2DF2EF02D3E
:1020500009C00F2EFDE1DF2EF02D04C00F2EFDE292
:10206000DF2EF02DED2DE695E695E69530E2E39F27
:10207000F0011124FA5F3D2D377081E090E0032ECE
:1020800002C0880F991F0A94E2F78183223010F072
:1020900040E001C040E4DF015096A30FB11D9FB79F
:1020A0009983F89439812C9127702C939C91942BCF
:1020B0009C933FBF8583F7018581806C8583F80100
:1020C00084818D7F813029F4F70185818260858349
:1020D00004C0F70185818D7F8583F8018581882380
:1020E00029F0F70185818460858304C0F70185812B
:1020F0008B7F8583F801408151816281738100E883
:1021000014E82EE130E0C701F8DDF7018481886032
:1021100084838481806184831AC0F70184818F7EE7
:102120008483F80124812250C70160CF0F2EF5E18E
:10213000DF2EF02D80EA98E06ACF0F2EFDE1DF2E32
:10214000F02D7BCF0F2EF5E2DF2EF02D8BCF0F90F1
:10215000DF91CF911F910F91FF90EF90DF90089545
:10216000FC010396818392832FEF3FEF2383348317
:10217000858396838783908710820895FC0110865B
:1021800011860895CF93DF939C01FB01DC0111962A
:10219000CD91DC911297C283D3838C819D818483FE
:1021A00095838C819D81DC0112966D937C931397AE
:1021B0006C837D8320873187F90180818F5F8083E5
:1021C000DF91CF910895CF93DF93EB01488159813F
:1021D0004F3F2FEF520721F4FC01A781B0850DC0BE
:1021E000DC01139601C0DF011296ED91FC9113976B
:1021F0002081318142175307B0F71296ED91FC917F
:102200001397EA83FB83C483D583AC83BD83129683
:10221000CD93DC93139788879987FC0120812F5FEA
:102220002083DF91CF910895CF93DF93FC01A085A8
:10223000B185C281D381848195818C839D83C48142
:10224000D581828193818A839B8311968D919C9104
:102250001297E817F90731F48481958111968D93CF
:102260009C931297108611868C9181508C938C913F
:10227000DF91CF9108950F931F938B0171E1FC01C2
:102280007083319762E26083319723E32083012ECC
:10229000000C220B330B3197008331971083319759
:1022A000208331971082319720E820833197108264
:1022B000319722E02083319723E02083319724E077
:1022C0002083319725E02083319726E020833197C2
:1022D00027E02083319728E02083319729E020836D
:1022E000319720E1208331977083319722E1208359
:1022F000319723E12083319724E12083319725E131
:102300002083319726E12083319727E1208331977D
:1023100028E12083319729E12083319720E220832F
:10232000319721E2208331976083319723E2208324
:102330003197408331975083319726E2208331973C
:1023400027E22083319728E22083319729E22083F6
:10235000319720E32083319721E3208387971F91D2
:102360000F910895F894E0E7F0E083818A7F8383FA
:10237000E0E0F8E080E09AEF86A397A391E09683EF
:10238000A0EAB0E012968C911297816012968C931D
:1023900090837894A091BC22B091BD220D900DBE87
:1023A0000D900EBEFF91EF91DF91CF91BF91AF9154
:1023B0009F918F917F916F915F914F913F912F915D
:1023C0001F910F91FF90EF90DF90CF90BF90AF9053
:1023D0009F908F907F906F905F904F903F902F9045
:1023E0001F900F900FBE0F90089581E008950F92F7
:1023F0000FB6F8940F921F9211242F923F924F9292
:102400005F926F927F928F929F92AF92BF92CF9284
:10241000DF92EF92FF920F931F932F933F934F936F
:102420005F936F937F938F939F93AF93BF93CF935C
:10243000DF93EF93FF93A091BC22B091BD220DB624
:102440000D920EB60D92F5D5A091BC22B091BD2291
:102450000D900DBE0D900EBEFF91EF91DF91CF91CB
:10246000BF91AF919F918F917F916F915F914F91AC
:102470003F912F911F910F91FF90EF90DF90CF90A0
:10248000BF90AF909F908F907F906F905F904F9094
:102490003F902F901F900F900FBE0F9008950F92B6
:1024A0000FB6F8940F921F9211242F923F924F92E1
:1024B0005F926F927F928F929F92AF92BF92CF92D4
:1024C000DF92EF92FF920F931F932F933F934F93BF
:1024D0005F936F937F938F939F93AF93BF93CF93AC
:1024E000DF93EF93FF93A091BC22B091BD220DB674
:1024F0000D920EB60D9268D481119BD5A091BC228D
:10250000B091BD220D900DBE0D900EBEFF91EF91CA
:10251000DF91CF91BF91AF919F918F917F916F91FB
:102520005F914F913F912F911F910F91FF90EF90ED
:10253000DF90CF90BF90AF909F908F907F906F90E3
:102540005F904F903F902F901F900F900FBE0F9075
:102550001895CF93DF93EC0127D4CE010E945B1F27
:10256000EC01EAD4CE01DF91CF910895CF93DF93B0
:10257000009731F0EC0118D4CE010E94F31FDCD497
:10258000DF91CF9108950FB6F8940F92FC01928DD0
:102590000F900FBE81E0911180E008950F931F937B
:1025A000CF93DF93EC01042F1A8D4C8D4423B9F1A6
:1025B000011116C050E08A819B810E947C202C8DE5
:1025C0008A819B81820F911D8A839B832C813D810F
:1025D0008217930720F1888199818A839B831FC08A
:1025E00050E08E819F810E947C208C8D90E091959F
:1025F000819591092E813F81280F391F2E833F83BA
:10260000488159812417350730F42C813D81820F90
:10261000931F8E839F83023011F4111111501F5F9D
:102620001A8F80E0DF91CF911F910F910895FC01E7
:10263000448D4423A9F050E026813781240F351FB3
:1026400026833783848195812817390720F080817C
:10265000918186839783CB01668177810C947C205E
:102660000895EF92FF920F931F93CF938C010FB6B3
:10267000F8940F92FC01C68D1C169CF4818981117F
:1026800006C00FC0F8018189811105C00AC0780118
:10269000F1E1EF0EF11CC70159D58111D3D5C1501D
:1026A00089F78FEFF801868F0F900FBE0FB6F89461
:1026B0000F92C58D1C169CF48085811106C00FC039
:1026C000F8018085811105C00AC07801F8E0EF0E9D
:1026D000F11CC7013BD58111B5D5C15089F78FEFEA
:1026E000F801858F0F900FBECF911F910F91FF9032
:1026F000EF900895CF93DF93EC010FB6F8940F920B
:10270000E881F9818B8D2C8D90E030E0829FA001D3
:10271000839F500D929F500D11244E0F5F1F4C83CD
:102720005D831A8EEA83FB830197829FA001839FBA
:10273000500D929F500D1124CF01840F951F8E8351
:102740009F838FEF8D8F8E8F61110AC088858823BC
:1027500069F0CE010896FAD4882341F048DE06C01D
:10276000CE010896FDDCCE014196FADC0F900FBE3B
:1027700081E0DF91CF9108950F931F93CF93DF9363
:10278000082F162F869FC00111244F96E2DEEC0120
:10279000009769F0111103C08883998303C04F9695
:1027A000888399830B8F1C8F61E0CE01A3DFCE015C
:1027B000DF91CF911F910F910895AF92BF92CF9269
:1027C000DF92EF92FF920F931F93CF93DF93CDB7DA
:1027D000DEB72597CDBFDEBF8C016B014C835D83D7
:1027E000A22EB12C7C0188E0E80EF11C0FB6F89403
:1027F0000F92F801928D838D981718F0F2E0AF12C6
:1028000015C04A2DB601C801C9DEF8019189992386
:1028100039F0C80141969AD4882321F0E8DD02C03E
:102820008111E5DD0F900FBE81E046C08C819D8156
:10283000892B21F40F900FBE80E03EC0B11005C07F
:10284000CE010196C9D4BB24B3940F900FBEACD275
:102850000FB6F8940F92F801858D8F3F09F4158E0D
:10286000F801868D8F3F09F4168E0F900FBEBE01C2
:102870006C5F7F4FCE010196BAD4811119C00FB69B
:10288000F8940F92F801928D0F900FBE838D9813DC
:102890000BC06C817D81C70132D4C801E2DE4CD30C
:1028A0008111A4CFA4DDA2CFC801DBDE45D39ECF2A
:1028B000C801D7DE41D380E02596CDBFDEBFDF91D2
:1028C000CF911F910F91FF90EF90DF90CF90BF902D
:1028D000AF900895EF92FF920F931F93CF93DF93E2
:1028E0008A01FC01528D338D531710F02230F1F420
:1028F000422F7801EC011E8D8A8DCE014FDE1F3FE5
:1029000079F489898823A1F0CE0141961FD48823C8
:1029100089F0E114F10481F081E0F70180830DC0BA
:10292000FF24F394F10EFE8E81E007C080E005C025
:1029300081E003C081E001C081E0DF91CF911F9170
:102940000F91FF90EF900895AF92BF92CF92DF92D8
:10295000EF92FF920F931F93CF93DF93CDB7DEB724
:102960002597CDBFDEBF8C015B014C835D83E12CDD
:102970006C0181E1C80ED11C0FB6F8940F92F801DA
:10298000F28CFF2091F0B501C80151DEFA94F801F4
:10299000F28E8085882329F0C8010896D7D381114B
:1029A00026DD0F900FBE81E045C08C819D81892B73
:1029B00021F40F900FBE80E03DC0E11005C0CE01B4
:1029C00001960AD4EE24E3940F900FBEEDD10FB61A
:1029D000F8940F92F801858D8F3F09F4158EF80158
:1029E000868D8F3F09F4168E0F900FBEBE016C5F6F
:1029F0007F4FCE010196FBD3811113C0C801C3DD07
:102A0000882359F06C817D81C60179D3C80129DE04
:102A100093D28111B1CFEBDCAFCFC80122DE8CD2D3
:102A2000ABCFC8011EDE88D2C801ADDD882309F412
:102A3000A3CF80E02596CDBFDEBFDF91CF911F9160
:102A40000F91FF90EF90DF90CF90BF90AF900895DF
:102A5000CF93DF93EC010FB6F8940F928D8D8F3FDB
:102A600009F41D8E8E8D8F3F09F41E8E0F900FBEC0
:102A70008A8D811103C0CE01419651D3CE01F1DD83
:102A8000DF91CF910895E0917B22F0917C228081AB
:102A9000811107C08FEF9FEF80936422909365228E
:102AA0000895E0917B22F0917C220580F681E02D53
:102AB0000680F781E02D8281938180936422909338
:102AC00065220895CFE8D2E288818230E8F38FDC76
:102AD000FBCF0F931F93CF93DF93EC0100916D22F7
:102AE00010916E228091BC229091BD2202969CDBB7
:102AF000C00FD11FE091BC22F091BD22C283D383CD
:102B0000C017D10760F46091BC227091BD22809102
:102B1000792290917A226E5F7F4F55DB16C06091CB
:102B2000BC227091BD2280917B2290917C226E5FAD
:102B30007F4F49DB8091642290916522C817D907A5
:102B400020F4C0936422D0936522DF91CF911F912E
:102B50000F9108954F925F926F927F928F929F9202
:102B6000AF92BF92CF92DF92EF92FF920F931F939B
:102B7000CF93DF934C016B015A012901CA01E9DCB3
:102B80003C01892B09F4D3C086E290E0E2DCEC0141
:102B9000892B59F06F8A788E81E0A81AB108A60CAB
:102BA000B71CC114D10421F41FC0C301DFDCBFC0B6
:102BB000D6018C91898F8C918823A1F0AE01465E5D
:102BC0005F4FF6013196B8E0CB0ED11CCF012191B9
:102BD000DA012D93AD01DC018C91882319F0CE161A
:102BE000DF06A1F718A201C0198E053008F004E035
:102BF0000E8B6E01B2E0CB0ED11CC601BFDACE0146
:102C00000C96BCDAC887D98785E090E0801B9109D3
:102C10008C879D87CA8BDB8B19A21AA21BA21CA2D0
:102C20001DA2A201B401C50126DB88839983E114AA
:102C3000F10419F0F701C083D1830FB6F8940F9215
:102C400080916F228F5F80936F228091BC22909140
:102C5000BD22892B69F5C093BC22D093BD228091FF
:102C60006F228130A9F50FE812E20F2EFCEBEF2E58
:102C7000F2E2FF2EF02DC80173DA075F1F4F0E1529
:102C80001F05C9F786E892E26BDA8DE792E268DA0F
:102C900080E792E265DA86E892E280937B22909365
:102CA0007C228DE792E28093792290937A2210C061
:102CB00080916B2281110CC0E091BC22F091BD2269
:102CC00096898E89891720F0C093BC22D093BD22AB
:102CD000809166228F5F809366228E8990916C220C
:102CE000981710F480936C2290E09C01220F331F00
:102CF000220F331F220F331F820F931FB6018157FC
:102D00009D4D40DA0F900FBE80916B22882359F0C1
:102D1000E091BC22F091BD2296898E89981728F403
:102D200066DB81E005C081E003C081E001C08FEF78
:102D3000DF91CF911F910F91FF90EF90DF90CF9097
:102D4000BF90AF909F908F907F906F905F904F90CB
:102D50000895EF92FF920F930F2EF2E6EF2EF2E21C
:102D6000FF2EF02D00E020E030E045E550E064E18A
:102D700070E282E695E1EEDE813091F4CCD28130D2
:102D800079F4F8948FEF9FEF8093642290936522FB
:102D900081E080936B2210926D2210926E22E2DA13
:102DA0000F91FF90EF900895809161228F5F809343
:102DB000612208950FB6F8940F9280916D22909140
:102DC0006E220F900FBE0895DF92EF92FF920F9345
:102DD0001F93CF93DF938091612281119AC0E0907D
:102DE0006D22F0906E228FEFE81AF80AE0926D22C1
:102DF000F0926E22E114F104B1F480917B22909163
:102E00007C222091792230917A2220937B22309368
:102E10007C228093792290937A22809167228F5F1F
:102E20008093672230DE8091642290916522E816BB
:102E3000F90610F4D12C4FC0D12CE0917B22F091F7
:102E40007C228081811107C08FEF9FEF80936422E5
:102E50009093652240C0E0917B22F0917C22058016
:102E6000F681E02DC681D7818A819B81E816F9061B
:102E700028F480936422909365222DC08E010E5F0A
:102E80001F4FC801D1D98C899D89892B19F0CE019A
:102E90000C96CAD98E8990916C22981710F4809361
:102EA0006C2290E09C01220F331F220F331F220F50
:102EB000331F820F931FB80181579D4D63D9E09155
:102EC000BC22F091BD229E898689981708F4B5CF5F
:102ED000DD24D394B2CFE091BC22F091BD2286894B
:102EE00090E0FC01EE0FFF1FEE0FFF1FEE0FFF1F24
:102EF0008E0F9F1FFC01E157FD4D8081823010F045
:102F0000DD24D39480916822882369F0DD24D39452
:102F10000AC08091692290916A2201968093692269
:102F200090936A22D12C8D2DDF91CF911F910F911B
:102F3000FF90EF90DF900895DF92EF92FF920F9352
:102F40001F93CF93DF930FB6F8940F928091612275
:102F50008150809361228091612281115DC08091B6
:102F60006F22811130C05BC0D7011596ED91FC91A5
:102F70001697C681D781CE010C9656D98E010E5F69
:102F80001F4FC80151D98E8990916C22981710F467
:102F900080936C2290E09C01220F331F220F331F7D
:102FA000220F331F820F931FB80181579D4DEAD81E
:102FB000E091BC22F091BD229E898689981768F025
:102FC000D09268220AC0C0E0D0E00F2EF0E7EF2ECA
:102FD000F2E2FF2EF02DDD24D394F70180818111E0
:102FE000C3CFCD2B09F04FDDC0916922D0916A2269
:102FF000209759F011E0E8DE8111109368222197A3
:10300000D1F71092692210926A2280916822882357
:1030100029F0EDD981E003C080E001C080E00F908D
:103020000FBEDF91CF911F910F91FF90EF90DF9036
:10303000089580916122882321F081E080936822A5
:1030400008951092682220916C22822F90E0FC015A
:10305000EE0FFF1FEE0FFF1FEE0FFF1FE80FF91F10
:10306000E157FD4D3081311111C02150822F90E088
:10307000FC01EE0FFF1FEE0FFF1FEE0FFF1FE80F0B
:10308000F91FE157FD4D3081332379F3AC01440F33
:10309000551F440F551F440F551F480F591FDA0184
:1030A000A157BD4D1196ED91FC9112970280F381CD
:1030B000E02D1196ED93FC9312974E565D4DE4175B
:1030C000F50729F442815381FD0141835283FC01BC
:1030D000EE0FFF1FEE0FFF1FEE0FFF1F8E0F9F1F44
:1030E000FC01E157FD4D0180F281E02D8681978141
:1030F0008093BC229093BD2220936C220895CF939D
:10310000DF93EB016091BC227091BD22645F7F4F21
:103110005AD861E0CE01DDDCDF91CF9108950F93A5
:103120001F93CF938B01C42F6091BC227091BD225D
:10313000645F7F4F27D8CC2311F00FEF1FEF6C2F68
:10314000C801C7DCCF911F910F9108950F931F9372
:10315000CF93DF93DC011596ED91FC911697C68114
:10316000D7818E01045F1F4FC8015ED88091612214
:1031700081111BC00A501109C80156D88E8990913F
:103180006C22981710F480936C2290E09C01220F1F
:10319000331F220F331F220F331F820F931FB801DB
:1031A00081579D4D0E94C21005C0B80180E792E290
:1031B0000E94C210E091BC22F091BD229E898689B6
:1031C000891720F481E08093682201C080E0DF91BC
:1031D000CF911F910F91089520916722FC012083C8
:1031E00020916D2230916E222183328308950FB693
:1031F000F8940F9220916D2230916E22DC0111968D
:103200004D915C911297E0916722FC91FE1719F0A5
:103210002417350798F4241B350BFB01408151819D
:103220002417350738F4421B530B40835183D4DFF6
:1032300080E005C01082118281E001C081E00F9022
:103240000FBE089581E080936822089580916B22DB
:10325000882331F080916122882321F080E0089555
:1032600081E0089582E00895FC0162837383808782
:1032700091874617570790F0421B530B848595851D
:1032800048175907E0F4BF016E5F7F4F8091C42259
:103290009091C5220E94E31080E0089542175307E1
:1032A00018F46217730768F4BF016E5F7F4F809157
:1032B000C6229091C7220E94E31080E0089581E029
:1032C000089581E008950FB6F8940F928091C2227C
:1032D0009091C322892BE1F481ED92E20E94B0101B
:1032E00088EC92E20E94B01081ED92E28093C622B7
:1032F0009093C72288EC92E28093C4229093C522D7
:1033000040E065E08AE038DA8093C2229093C322DD
:103310000F900FBE0895EF92FF920F93D4DF80912C
:10332000C2229091C322892B89F00F2EF0ECEF2E50
:10333000F2E2FF2EF02D03E020E030E045E550E022
:1033400069E170E28BE59AE105DC01C080E00F9154
:10335000FF90EF9008950F931F93CF93DF93CDB716
:10336000DEB72597CDBFDEBFE091C222F091C32228
:10337000309751F1D90169834A835B838C839D83A4
:103380006630D4F463DF823059F420E0A801BE0136
:103390006F5F7F4F8091C2229091C3220EDA15C0D9
:1033A00020E040E050E0BE016F5F7F4F8091C2227D
:1033B0009091C32202DA09C020E0AD01BE016F5F27
:1033C0007F4FCF0187DA01C080E02596CDBFDEBFF9
:1033D000DF91CF911F910F910895AF92BF92CF923D
:1033E000DF92EF92FF920F931F93CF93DF936C01C5
:1033F000E1DC7C018091BE229091BF22E816F906A3
:1034000008F047C02FC00580F681E02DA080B18074
:10341000C681D7818E010E5F1F4FC8010E94141113
:10342000E889F989CE0119958A8982FF1BC08C85AC
:103430009D858A0D9B1DA816B90660F48A839B831F
:10344000C887D987B8018091C6229091C7220E946F
:10345000E31008C000E010E020E030E0A50160E0EB
:10346000CE0179DFE091C622F091C72280818111DF
:10347000CACF8091C4229091C5228093C622909396
:10348000C722E093C422F093C52281E0F601808335
:1034900002C0F6011082E092BE22F092BF22C70164
:1034A000DF91CF911F910F91FF90EF90DF90CF9020
:1034B000BF90AF900895CF93DF9300D000D0CDB7E9
:1034C000DEB7CE0101965C01E82EFB2CE091C6220E
:1034D000F091C7228081882309F4CFC00580F6814E
:1034E000E02DC080D18060DCC50177DF8C0189814F
:1034F000811146C00C151D05A0F11EDDE091C6220C
:10350000F091C7220580F681E02D86809780C40166
:1035100002960E941411D40152968C91529782FF08
:1035200015C01C966D917C911D976C0D7D1D9601AB
:10353000A801C40199DE882361F000E010E020E0DA
:1035400030E0A60160E0C40106DF03C08E7FF40115
:10355000828BD4015096ED91FC915197C40119953D
:1035600080C040E0B601601B710B8091C222909137
:10357000C3226EDAE1DC811174C00E94F71171C0C0
:10358000DBDC6FC0898188230CF46BC0CC80DD80CC
:10359000F60182859385892B21F0C60102960E944F
:1035A0001411CE01069619DFAC01E9810E2E000C34
:1035B000FF0BEA30F10508F054C08827E250FF4FB6
:1035C0008F4F5DC4D60152968C915297816052966E
:1035D0008C9352972A813B811C966D917C911D970B
:1035E000620F731FC60140DE8823D9F1D6015096C1
:1035F000ED91FC915197C6011995F601828982FFE0
:1036000030C04A815B8184859585480F591F00E051
:1036100010E020E030E060E0C6019DDE22C0D6016F
:1036200052968C9152978E7F52968C931AC0F601C7
:1036300082898160828B6A817B8164877587640F50
:10364000751F9A01C60110DE0CC0D60152968C91EE
:1036500081FD04C0C6010E94B61203C08E7FF60130
:10366000828B40E050E06E2D7F2D8091C2229091A0
:10367000C3226AD9811186CF29CF96DBC501ADDE81
:103680008C01898181117CCFE091C422F091C52207
:10369000808141E0811140E0C12CD12C63CF04C076
:1036A00061507109810991096115710581059105C3
:1036B000B9F70895E1EAF8E0908195FFFDCF809396
:1036C000A0080895CF93DF931F92CDB7DEB7E12C0A
:1036D0006894FF24F1F8772473940F2EF9EC6F2E81
:1036E000F02D0F2EFAED8F2EF2E29F2EF02D0F2EE1
:1036F000F7EAAF2EF3E2BF2EF02DC7010E94360885
:103700008FB78983F8949981F701808184608083E1
:103710009FBFF701868180FFFCCF7682C4A0D5A031
:10372000C7010E946208C60188509A406C01CC0C07
:10373000DD1C880F991F880F991F880F991FC80ECD
:10374000D91EDD2014F4C12CD12CB6010D2C000C97
:10375000880B990B48D223E333E343E550E4D3D2FB
:1037600020E030E04AE754E4A3D12091A323309134
:10377000A4234091A5235091A62336D1262F372F7D
:10378000462F572F682F792F4093A3235093A423BC
:103790006093A5237093A6239F938F933F932F93BA
:1037A00021E230E23F932F931F926F929F928F926C
:1037B000ACD4F4018081CDBFDEBF882341F00BED96
:1037C00012E278DFF80181918F018111FACF209008
:1037D000A3233090A4234090A5235090A62320E05B
:1037E00030E040EC50E4C201B10189D2181664F413
:1037F00082E08093410680E35DDF109228081092FA
:1038000029087092460613C020E030E040E85FE3EC
:10381000C201B10174D2181654F481E34BDF28ECD5
:1038200030E0209328083093290870924506DF92F3
:10383000CF9286E290E29F938F931F9210E81F939E
:10384000BF92AF9262D426E030E248E060E0C5016A
:103850000E94980620E030E048EC52E46091A323F7
:103860007091A4238091A5239091A6234CD288D156
:10387000CB0164E670E0CED29F938F937F936F93DA
:1038800026E330E23F932F931F921F93BF92AF9294
:103890003CD426E030E240E160E0C5010E94980699
:1038A00066E176E185E090E0FADECDBFDEBF25CFB0
:1038B000EF92FF920F931F93CF93DF93CDB7DEB7B5
:1038C0002B97CDBFDEBF0E9442040E945D07E0E45B
:1038D000F8E087E0808383E1818388EE93E086A32C
:1038E00097A310A611A611E010934106BE016F5FC9
:1038F0007F4F80E092E00E947E0AAE01485F5F4FFA
:1039000061E080E092E00E94020B9A818B818F78C7
:1039100080628B83892F817E8A831C8282E08D83E3
:10392000188780E48987BE016F5F7F4F80E092E057
:103930000E94180AAE01485F5F4F61E080E092E0AC
:103940000E94B70A0E94240580E18093850688E0E2
:10395000809345068093410684E0809346068093D9
:1039600042061092A7088CE08093A6081092A30844
:1039700083E08093A50888E18093A4086DE070E25D
:1039800080EA98E00E944F0D10932106E12CF12C63
:1039900001E020E030E048EE53E065E370E282E6CB
:1039A0009BE1D8D843E060E081E00E94BC1320E0B6
:1039B00040E050E060E070E00E94DD1326E030E27D
:1039C00040E060E088E490E20E949806C2D980E07E
:1039D00090E02B96CDBFDEBFDF91CF911F910F916D
:1039E000FF90EF9008955058BB27AA270ED04DC1E5
:1039F0003ED130F043D120F031F49F3F11F41EF45A
:103A000033C10EF4E095E7FB29C1E92F4FD180F3D4
:103A1000BA17620773078407950718F071F49EF5CB
:103A200067C10EF4E0950B2EBA2FA02D0B01B90142
:103A300090010C01CA01A0011124FF27591B99F024
:103A4000593F50F4503E68F11A16F040A22F232F30
:103A5000342F4427585FF3CF469537952795A79580
:103A6000F0405395C9F77EF41F16BA0B620B730B27
:103A7000840BBAF09150A1F0FF0FBB1F661F771F98
:103A8000881FC2F70EC0BA0F621F731F841F48F44D
:103A9000879577956795B795F7959E3F08F0B3CFD3
:103AA0009395880F08F09927EE0F979587950895BD
:103AB0000CD0EBC0E3D040F0DAD030F021F45F3F1F
:103AC00019F0CCC0511115C1CFC0F0D098F3992393
:103AD000C9F35523B1F3951B550BBB27AA276217D2
:103AE0007307840738F09F5F5F4F220F331F441F17
:103AF000AA1FA9F333D00E2E3AF0E0E830D091504F
:103B00005040E695001CCAF729D0FE2F27D0660F3B
:103B1000771F881FBB1F261737074807AB07B0E87A
:103B200009F0BB0B802DBF01FF2793585F4F2AF090
:103B30009E3F510568F092C0DCC05F3FECF3983EB9
:103B4000DCF3869577956795B795F7959F5FC9F7ED
:103B5000880F911D9695879597F90895E1E0660F76
:103B6000771F881FBB1F621773078407BA0720F0EF
:103B7000621B730B840BBA0BEE1F88F7E095089558
:103B800004D06894B111B5C0089598D088F09F57BB
:103B900090F0B92F9927B751A0F0D1F0660F771F99
:103BA000881F991F1AF0BA95C9F712C0B13081F079
:103BB0009FD0B1E008959CC0672F782F8827B85F09
:103BC00039F0B93FCCF3869577956795B395D9F7DA
:103BD0003EF490958095709561957F4F8F4F9F4FE4
:103BE0000895E89409C097FB3EF4909580957095F0
:103BF00061957F4F8F4F9F4F9923A9F0F92F96E939
:103C0000BB279395F695879577956795B795F111AD
:103C1000F8CFFAF4BB0F11F460FF1BC06F5F7F4F4A
:103C20008F4F9F4F16C0882311F096E911C077235C
:103C300021F09EE8872F762F05C0662371F096E865
:103C4000862F70E060E02AF09A95660F771F881F34
:103C5000DAF7880F9695879597F9089597F99F67F2
:103C600080E870E060E008959FEF80EC0895002404
:103C70000A941616170618060906089500240A94D1
:103C800012161306140605060895092E0394000C57
:103C900011F4882352F0BB0F40F4BF2B11F460FFE6
:103CA00004C06F5F7F4F8F4F9F4F089557FD90580F
:103CB000440F551F59F05F3F71F04795880F97FBF0
:103CC000991F61F09F3F79F08795089512161306AA
:103CD0001406551FF2CF4695F1DF08C016161706D9
:103CE0001806991FF1CF869571056105089408950E
:103CF000E894BB2766277727CB0197F9089566D00C
:103D000008F48FEF08950BD0C0CFB1DF28F0B6DFF5
:103D100018F0952309F0A2CFA7CF1124EACFC6DF70
:103D2000A0F3959FD1F3950F50E0551F629FF001CE
:103D3000729FBB27F00DB11D639FAA27F00DB11D27
:103D4000AA1F649F6627B00DA11D661F829F2227B0
:103D5000B00DA11D621F739FB00DA11D621F839F37
:103D6000A00D611D221F749F3327A00D611D231F0D
:103D7000849F600D211D822F762F6A2F11249F575B
:103D800050408AF0E1F088234AF0EE0FFF1FBB1F7E
:103D9000661F771F881F91505040A9F79E3F51051D
:103DA00070F05CCFA6CF5F3FECF3983EDCF38695D6
:103DB00077956795B795F795E7959F5FC1F7FE2BC8
:103DC000880F911D9695879597F90895990F00088A
:103DD000550FAA0BE0E8FEEF16161706E807F907DD
:103DE000C0F012161306E407F50798F0621B730B78
:103DF000840B950B39F40A2661F0232B242B252BF9
:103E000021F408950A2609F4A140A6958FEF811D9B
:103E1000811D089597FB072E16F4009406D077FDB8
:103E200008D035D007FC05D03EF4909581959F4F82
:103E30000895709561957F4F0895A1E21A2EAA1BEF
:103E4000BB1BFD010DC0AA1FBB1FEE1FFF1FA2174A
:103E5000B307E407F50720F0A21BB30BE40BF50B47
:103E6000661F771F881F991F1A9469F760957095D0
:103E7000809590959B01AC01BD01CF010895EE0F97
:103E8000FF1F881F8BBF0790F691E02D1994AA1B86
:103E9000BB1B51E107C0AA1FBB1FA617B70710F035
:103EA000A61BB70B881F991F5A95A9F78095909567
:103EB000BC01CD0108950F931F93CF93DF93823000
:103EC000910510F482E090E0E0913324F0913424E5
:103ED00020E030E0A0E0B0E0309719F1408151815E
:103EE0000281138148175907C8F08417950769F4B0
:103EF000109731F012960C93129713961C9327C0CB
:103F0000009333241093342422C02115310519F075
:103F10004217530718F49A01BD01EF01DF01F801C0
:103F2000DBCF21153105F9F0281B390B2430310581
:103F300080F48A819B816115710521F0FB018283E8
:103F4000938304C08093332490933424FE013296EB
:103F500044C0FE01E20FF31F819391932250310977
:103F6000288339833AC02091312430913224232B85
:103F700041F420910220309103202093312430938A
:103F8000322420910020309101202115310541F487
:103F90002DB73EB74091042050910520241B350BCE
:103FA000E0913124F0913224E217F307A0F42E1BA4
:103FB0003F0B2817390778F0AC014E5F5F4F24178D
:103FC000350748F04E0F5F1F409331245093322441
:103FD0008193919302C0E0E0F0E0CF01DF91CF91B7
:103FE0001F910F910895CF93DF93009709F481C03B
:103FF000FC01329712821382A0913324B0913424B1
:10400000109781F420813181820F931F20913124F8
:10401000309132242817390751F5E0933124F09379
:10402000322467C0ED0120E030E0CE17DF0740F416
:104030004A815B819E0141155105F1F0EA01F5CFFE
:10404000C283D38340815181840F951FC817D9073C
:1040500059F488819981840F951F029680839183FA
:104060008A819B81828393832115310529F4E09312
:104070003324F09334243DC0E901EA83FB83499162
:104080005991C40FD51FEC17FD0761F48081918110
:10409000840F951F0296E901888399838281938119
:1040A0008A839B83E0E0F0E012968D919C911397B8
:1040B000009719F0FD01DC01F7CF8D919C911197CC
:1040C0009D012E5F3F4F820F931F2091312430912D
:1040D00032242817390769F4309729F410923324D1
:1040E0001092342402C012821382A0933124B09320
:1040F0003224DF91CF910895FB01DC0102C00190D1
:104100000D9241505040D8F708950F931F93CF93CD
:10411000DF93CDB7DEB72E97CDBFDEBF0E891F89E7
:10412000888D998D26E02C8309831A8397FF02C01E
:1041300080E090E801978D839E83AE01445E5F4FDF
:104140006A8D7B8DCE01019616D04D815E8157FD23
:104150000AC02F813885421753070CF49A01F801E1
:10416000E20FF31F10822E96CDBFDEBFDF91CF91FD
:104170001F910F9108952F923F924F925F926F92ED
:104180007F928F929F92AF92BF92CF92DF92EF92E7
:10419000FF920F931F93CF93DF93CDB7DEB72B978B
:1041A000CDBFDEBF6C017B018A01FC011682178244
:1041B000838181FFBFC1CE0101963C01F60193814D
:1041C000F70193FD859193FF81917F01882309F485
:1041D000ADC1853239F493FD859193FF81917F01C3
:1041E000853221F4B60190E0D3D1E8CF912C212C77
:1041F000312CFFE1F315D8F08B3279F038F48032AE
:1042000079F08332A1F4232D20611DC08D3261F03D
:10421000803369F4232D216016C0832D8260382EEF
:10422000E32DE4603E2E2AC0F32DF8601DC037FC5C
:104230002DC020ED280F2A3040F08E32B9F436FC24
:1042400075C1232D2064322E19C036FE06C08AE0C7
:10425000989E200D1124922E11C0EAE02E9E200D72
:104260001124222EF32DF0623F2E08C08C3621F44B
:10427000832D8068382E02C0883641F4F70193FD03
:10428000859193FF81917F018111B3CF982F9F7DFD
:104290009554933028F40C5F1F4F9FE399830DC012
:1042A000833631F0833771F0833509F055C020C073
:1042B000F801808189830E5F1F4F88248394912C9D
:1042C000530112C02801F2E04F0E511CF801A080EA
:1042D000B18036FE03C0692D70E002C06FEF7FEF42
:1042E000C5014BD14C018201F32DFF773F2E15C044
:1042F000280122E0420E511CF801A080B18036FE58
:1043000003C0692D70E002C06FEF7FEFC5012AD1B5
:104310004C01F32DF0683F2E820133FC19C0822D31
:1043200090E088169906A0F4B60180E290E030D1C2
:104330002A94F5CFF50137FC859137FE81915F0115
:10434000B60190E025D121102A9421E0821A91082B
:104350008114910479F7E1C0843611F0893639F57A
:10436000F80137FE07C060817181828193810C5F03
:104370001F4F08C060817181072E000C880B990BBC
:104380000E5F1F4FF32DFF763F2E97FF09C09095CC
:104390008095709561957F4F8F4F9F4FF0683F2EAE
:1043A0002AE030E0A30130D1882E861844C085373A
:1043B00031F4232D2F7EB22E2AE030E025C0932D3C
:1043C000997FB92E8F36C1F018F4883579F0AEC0D8
:1043D000803719F0883721F0A9C0E92FE061BE2E9F
:1043E000B4FE0DC0FB2DF460BF2E09C034FE0AC020
:1043F000292F2660B22E06C028E030E005C020E15B
:1044000030E002C020E132E0F801B7FE07C0608171
:104410007181828193810C5F1F4F06C06081718121
:1044200080E090E00E5F1F4FA301EED0882E86182B
:10443000FB2DFF773F2E36FE0DC0232D2E7FA22EA3
:10444000891458F434FE0BC032FC09C0832D8E7ED3
:10445000A82E05C0B82CA32C03C0B82C01C0B92CC1
:10446000A4FE0FC0FE01E80DF11D8081803321F410
:104470009A2D997EA92E09C0A2FE06C0B394B394CA
:1044800004C08A2D867809F0B394A3FC10C0A0FE66
:1044900006C0B21480F4280C922C9B180DC0B214E4
:1044A00058F4B60180E290E073D0B394F8CFB21420
:1044B00018F42B1802C0982C212CA4FE0FC0B601B2
:1044C00080E390E065D0A2FE16C0A1FC03C088E79F
:1044D00090E002C088E590E0B6010CC08A2D867895
:1044E00051F0A1FE02C08BE201C080E2A7FC8DE288
:1044F000B60190E04DD0891430F4B60180E390E02D
:1045000047D09A94F8CF8A94F301E80DF11D808189
:10451000B60190E03DD08110F6CF222009F44ECEB6
:10452000B60180E290E034D02A94F7CFF60186817C
:10453000978102C08FEF9FEF2B96CDBFDEBFDF913B
:10454000CF911F910F91FF90EF90DF90CF90BF9090
:10455000AF909F908F907F906F905F904F903F9023
:104560002F900895FC010590615070400110D8F71C
:10457000809590958E0F9F1F0895FC0161507040AB
:1045800001900110D8F7809590958E0F9F1F089588
:104590000F931F93CF93DF93FB01238121FD03C072
:1045A0008FEF9FEF2CC022FF16C0468157812481D8
:1045B00035814217530744F4A081B1819D012F5FDB
:1045C0003F4F208331838C93268137812F5F3F4F6C
:1045D0002683378314C08B01EC01FB010084F18535
:1045E000E02D1995892BE1F6D80116968D919C91B5
:1045F0001797019616968D939C931797CE01DF918E
:10460000CF911F910F910895FA01AA27283051F1F7
:10461000203181F1E8946F936E7F6E5F7F4F8F4FF3
:104620009F4FAF4FB1E03ED0B4E03CD0670F781F52
:10463000891F9A1FA11D680F791F8A1F911DA11D37
:104640006A0F711D811D911DA11D20D009F4689470
:104650003F912AE0269F11243019305D3193DEF618
:10466000CF010895462F4770405D4193B3E00FD0CE
:10467000C9F7F6CF462F4F70405D4A3318F0495DB9
:1046800031FD4052419302D0A9F7EACFB4E0A6959C
:104690009795879577956795BA95C9F700976105BE
:1046A000710508959B01AC010A2E06945795479514
:1046B00037952795BA95C9F7620F731F841F951F09
:0846C000A01D0895F894FFCF3E
:1046C8000000352420000010020607207D80250008
:1046D8000003000049444C4500546D722053766332
:1046E80000252E32660043757272656E743A202575
:1046F8003464206D4100456E657267793A202564FF
:104708002E25303264204A00456D62656464657206
:0247180000009F
:00000001FF
